:020000040800F2
:10000000005000204D1B0008751900087B190008DE
:1000100081190008871900088D19000800000000E8
:10002000000000000000000000000000931900081C
:100030009F19000800000000AB190008B71900085C
:10004000951B0008951B0008951B0008951B0008D0
:10005000951B0008951B0008951B0008951B0008C0
:10006000951B0008951B0008951B0008951B0008B0
:10007000951B0008951B0008951B0008951B0008A0
:10008000951B0008951B0008951B0008951B000890
:10009000951B0008951B0008951B0008951B000880
:1000A000951B0008951B0008951B0008951B000870
:1000B000C5190008D9190008951B0008951B0008F0
:1000C000951B0008951B0008951B0008951B000850
:1000D000951B0008951B0008ED190008951B0008EA
:1000E000951B0008951B0008951B000800000000E8
:1000F0000000000000000000000000000000000000
:0C01000000000000000000005FF808F1A3
:10010C0010B5054C237833B9044B13B10448AFF345
:10011C0000800123237010BDB000002000000000FF
:10012C004C57000808B5034B1BB103490348AFF308
:10013C00008008BD00000000B40000204C570008EF
:10014C0080B400AF064B1B68012B04D1044B00227A
:10015C001A60012300E000231846BD4680BC70479E
:10016C00D000002080B400AF064B1B68012B04D1DB
:10017C00044B00221A60012300E000231846BD4600
:10018C0080BC7047D400002080B400AF064B1B68C5
:10019C00012B04D1044B00221A60012300E0002340
:1001AC001846BD4680BC7047D800002080B400AF14
:1001BC00064B1B68012B04D1044B00221A6001234F
:1001CC0000E000231846BD4680BC7047DC000020D0
:1001DC0080B500AF034B01221A6000F007FA00BF94
:1001EC0080BD00BFD000002080B500AF034B0122C2
:1001FC001A6000F0FBF900BF80BD00BFD4000020E6
:10020C0080B500AF034B01221A6000F0EFF900BF7C
:10021C0080BD00BFD800002080B500AF034B012289
:10022C001A6000F0E3F900BF80BD00BFDC000020C5
:10023C0080B500AF224B1B68224A1360224B1B680F
:10024C001F4A13600221214802F046F803461A4661
:10025C001D4B1A601A4B1A681B4B1B689A422DD106
:10026C00174B1A68174B1B689A4227D1154B1A6803
:10027C00174B1B689A4212D0124B1B68144A13601E
:10028C00114B1B68002B06D1124B4FF4FA721A60FB
:10029C00FFF79EFF12E00F4B00221A600EE00D4B91
:1002AC001B68013B0B4A13600A4B1B68002B05D1E2
:1002BC00084B4FF4FA721A60FFF78AFF00BF80BD3B
:1002CC001000002020000020000000200008014049
:1002DC0030000020CC00002080B500AF224B5B68C2
:1002EC00224A5360224B5B681F4A536010212148FD
:1002FC0001F0F2FF03461A461D4B5A601A4B5A681E
:10030C001B4B5B689A422DD1174B5A68174B5B6895
:10031C009A4227D1154B5A68174B5B689A4212D0F8
:10032C00124B5B68144A5360114B5B68002B06D16F
:10033C00124B4FF4FA721A60FFF756FF12E00F4B94
:10034C0000221A600EE00D4B1B68013B0B4A136038
:10035C000A4B1B68002B05D1084B4FF4FA721A603C
:10036C00FFF742FF00BF80BD1000002020000020DE
:10037C00000000200008014030000020CC000020CC
:10038C0080B500AF224B9B68224A9360224B9B683E
:10039C001F4A93600121214801F09EFF03461A4633
:1003AC001D4B9A601A4B9A681B4B9B689A422DD135
:1003BC00174B9A68174B9B689A4227D1154B9A6832
:1003CC00174B9B689A4212D0124B9B68144A93604D
:1003DC00114B9B68002B06D1124B4FF4FA721A602A
:1003EC00FFF70EFF12E00F4B00221A600EE00D4BD0
:1003FC001B68013B0B4A13600A4B1B68002B05D191
:10040C00084B4FF4FA721A60FFF7FAFE00BF80BD7A
:10041C00100000202000002000000020000C0140F3
:10042C0030000020CC00002080B500AF224BDB68F0
:10043C00224AD360224BDB681F4AD360012121483A
:10044C0001F04AFF03461A461D4BDA601A4BDA6874
:10045C001B4BDB689A422DD1174BDA68174BDB68C4
:10046C009A4227D1154BDA68174BDB689A4212D0A7
:10047C00124BDB68144AD360114BDB68002B06D19E
:10048C00124B4FF4FA721A60FFF7C6FE12E00F4BD4
:10049C0000221A600EE00D4B1B68013B0B4A1360E7
:1004AC000A4B1B68002B05D1084B4FF4FA721A60EB
:1004BC00FFF7B2FE00BF80BD10000020200000201E
:1004CC00000000200008014030000020CC0000207B
:1004DC0080B582B000AF78607B68013B192B7FD868
:1004EC0001A252F823F000BF5D050008ED050008DD
:1004FC00ED05000867050008ED0500087905000802
:10050C008305000895050008ED050008ED050008B9
:10051C00ED050008ED050008ED050008ED050008E7
:10052C00ED050008ED050008ED050008ED050008D7
:10053C00ED050008ED050008ED050008A305000811
:10054C00A9050008BB050008C9050008DB05000863
:10055C0000F04CF800F050F943E000F0B9F800F06E
:10056C00DBF800F019F900F00BF93AE000F0B0F804
:10057C0000F0BAF835E000F0C3F800F0B5F800F080
:10058C00F3F800F015F92CE000F0A2F800F0B8F840
:10059C0000F0AAF825E000F029F822E000F098F825
:1005AC0000F0BAF800F0F8F800F0EAF819E000F002
:1005BC008FF800F099F800F0BBF812E000F0A0F80A
:1005CC0000F092F800F0D0F800F0F2F809E000F03A
:1005DC007FF800F095F800F087F800F0A9F800E03B
:1005EC0000BF00BF0837BD4680BD00BF80B500AF5F
:1005FC00084B00221A6000F0B7F800F0C1F800F0C8
:10060C00CBF800F0D5F800F0DFF800F0E9F800BF07
:10061C0080BD00BFF400002080B582B000AF7860D0
:10062C007B680E3B032B23D801A252F823F000BFAA
:10063C004D06000857060008650600086F060008FE
:10064C0000F046F800F068F813E000F041F800F014
:10065C004BF800F061F80CE000F052F800F044F8B0
:10066C0007E000F035F800F04BF800F03DF800E042
:10067C0000BF00BF0837BD4680BD00BF80B582B04B
:10068C0000AF78607B68152B17D07B68152B19DCB5
:10069C007B68132B03D07B68142B05D012E000F081
:1006AC0017F800F021F80EE000F012F800F028F82E
:1006BC0000F01AF800F030F805E000F021F800F036
:1006CC002BF800E000BF00BF0837BD4680BD00001E
:1006DC0080B500AF01224FF48061024801F013FE97
:1006EC0000BF80BD0008014080B500AF0122202171
:1006FC00024801F008FE00BF80BD00BF000C0140A5
:10070C0080B500AF01220821024801F0FCFD00BFBA
:10071C0080BD00BF000C014080B500AF012210214C
:10072C00024801F0F0FD00BF80BD00BF000C01408D
:10073C0080B400AF044B1A68044B1B685A6300BFAB
:10074C00BD4680BC704700BFF80000202801002087
:10075C0080B400AF034B1B6800225A6300BFBD4638
:10076C0080BC70472801002080B500AF00224FF4F8
:10077C008061024801F0C7FD00BF80BD0008014048
:10078C0080B500AF00222021024801F0BCFD00BF63
:10079C0080BD00BF000C014080B500AF00220821D5
:1007AC00024801F0B0FD00BF80BD00BF000C01404D
:1007BC0080B500AF00221021024801F0A4FD00BF5B
:1007CC0080BD00BF000C014080B500AF00224FF48B
:1007DC008061024801F097FD00BF80BD000C014014
:1007EC0080B500AF00224FF48071024801F08BFD00
:1007FC0000BF80BD0008014080B500AF044B002253
:10080C001A600021034802F041FB00BF80BD00BF0D
:10081C00F80000202801002080B500AFB64B1B6803
:10082C00013B072B00F2EE8101A252F823F000BF2E
:10083C005D080008110C0008110C0008A70800083E
:10084C00110C0008710900083B0A0008490B00084C
:10085C00AA4B1B68012B40F0D781A74B04221A60CE
:10086C00A74B1B680333642202FB03F3184600F00A
:10087C00CFFEA44804F014F8A34B00221A60A04B3E
:10088C001B68DA1CA04B1B68D31A19469F4803F04F
:10089C0081FF642000F0D0FEB6E1984B1B68012B61
:1008AC001BD1954B06221A60994B1B6802336422AC
:1008BC0002FB03F3184600F0ABFE934B00221A60C8
:1008CC00934B1B689A1C904B1B68D31A1946914882
:1008DC0003F060FF642000F0AFFE8F4B1B68012B10
:1008EC0011D1894B1B680133874A1360844B1B68F9
:1008FC00DA1C854B1B68D31A1946844803F04AFF4F
:10090C00642000F099FEFFF72DFC0346012B05D166
:10091C00794B0E221A60814803F0C2FFFFF734FCBA
:10092C000346012B0ED1744B13221A607C4803F042
:10093C00B7FF7C4803F0B4FF7B4803F0B1FF7B4862
:10094C0003F0AEFFFFF732FC0346012B40F05E8153
:10095C00694B16221A60764803F0A2FFC82000F0FB
:10096C0057FE53E1654B1B68012B1BD1624B0722D1
:10097C001A60634B1B680333642202FB03F31846B3
:10098C0000F046FE604B00221A605D4B1B68DA1CBF
:10099C005D4B1B68D31A1946664803F0FBFE6420B6
:1009AC0000F04AFE5C4B1B68012B11D1564B1B68A7
:1009BC000133554A1360564B1B689A1C524B1B68EB
:1009CC00D31A1946534803F0E5FE642000F034FEB8
:1009DC00FFF7C8FB0346012B05D1474B0E221A60CB
:1009EC004E4803F05DFFFFF7CFFB0346012B0ED102
:1009FC00414B13221A604A4803F052FF494803F056
:100A0C004FFF494803F04CFF484803F049FFFFF7FC
:100A1C00CDFB0346012B40F0FB80374B16221A60AE
:100A2C00434803F03DFFC82000F0F2FDF0E0334BEB
:100A3C001B68012B1BD1304B08221A60344B1B68EE
:100A4C000233642202FB03F3184600F0E1FD2E4B47
:100A5C0000221A602E4B1B689A1C2B4B1B68D31A56
:100A6C001946354803F096FE642000F0E5FD2A4B4C
:100A7C001B68012B11D1244B1B680133224A1360D4
:100A8C001F4B1B68DA1C204B1B68D31A19462948CC
:100A9C0003F080FE642000F0CFFDFFF763FB0346FC
:100AAC00012B05D1144B0E221A601C4803F0F8FEE2
:100ABC00FFF76AFB0346012B0ED10F4B13221A6072
:100ACC00174803F0EDFE174803F0EAFE164803F052
:100ADC00E7FE164803F0E4FEFFF768FB0346012B24
:100AEC0040F09880044B16221A60114803F0D8FE8F
:100AFC00C82000F08DFD8DE0E000002000010020FA
:100B0C00E800002064570008F4000020705700082B
:100B1C00EC000020805700080801002094570008C2
:100B2C00B4570008D4570008FC57000814580008A4
:100B3C00205800084458000854580008384B1B68CB
:100B4C00012B1BD1374B04221A60374B1B68033324
:100B5C00642202FB03F3184600F05AFD334B0022CB
:100B6C001A60314B1B68DA1C304B1B68D31A1946C0
:100B7C002F4803F00FFE642000F05EFD2D4B1B6828
:100B8C00012B11D1294B1B680133284A13602A4BC6
:100B9C001B689A1C254B1B68D31A1946274803F06F
:100BAC00F9FD642000F048FDFFF7DCFA0346012B49
:100BBC0005D11C4B0E221A60214803F071FEFFF781
:100BCC00E3FA0346012B0ED1164B13221A601D4873
:100BDC0003F066FE1C4803F063FE1C4803F060FE45
:100BEC001B4803F05DFEFFF7E1FA0346012B13D11E
:100BFC000C4B16221A60174803F052FEC82000F066
:100C0C0007FD09E000BF08E000BF06E000BF04E0FC
:100C1C0000BF02E000BF00E000BF00BF80BD00BF0E
:100C2C0000010020E0000020E8000020F40000207B
:100C3C007057000808010020EC00002054580008F0
:100C4C0094570008B4570008D4570008FC57000804
:100C5C00145800082058000880B500AF2F4B1B68B3
:100C6C000E3B032B4ED801A252F823F0890C00083E
:100C7C00AB0C0008CD0C0008EF0C0008FFF760FA75
:100C8C000346012B02D1254B01221A60FFF76AFAA9
:100C9C000346012B38D1214B0F221A6034E0FFF7A9
:100CAC004FFA0346012B02D11C4B01221A60FFF7AD
:100CBC0059FA0346012B29D1184B10221A6025E052
:100CCC00FFF73EFA0346012B02D1144B01221A60A6
:100CDC00FFF748FA0346012B1AD1104B11221A6068
:100CEC0016E0FFF72DFA0346012B02D10B4B012224
:100CFC001A60FFF737FA0346012B0BD1074B0E2274
:100D0C001A6007E000BF06E000BF04E000BF02E08D
:100D1C0000BF00E000BF00BF80BD00BFE0000020AE
:100D2C0080B500AF944B1B68163B042B00F28481FA
:100D3C0001A252F823F000BF590D0008A30D0008C2
:100D4C003B0E0008ED0E0008C50F00088B4B1B680E
:100D5C00012B40F07381884B17221A60884B1B685B
:100D6C000333642202FB03F3184600F051FC854860
:100D7C0003F096FD844B00221A60814B1B68DA1C31
:100D8C00814B1B68D31A1946804803F003FD64207D
:100D9C0000F066FC52E1794B1B68012B2FD1764B8E
:100DAC0018221A607A4B1B680233642202FB03F38D
:100DBC00184600F02DFC0021764801F0C5FF3C20C0
:100DCC0000F03AFC704B00221A60714B1B689A1CA5
:100DDC006D4B1B68D31A19466F4803F0DBFC6C4B48
:100DEC001B689A1C684B1B68D31A19466B4803F096
:100DFC00D1FC642000F034FC3D2000F045FC684B35
:100E0C001B68012B40F01C815F4B1B6801335E4A51
:100E1C0013605B4B1B68DA1C5B4B1B68D31A1946BF
:100E2C005A4803F0B7FC642000F01AFC08E1534B5D
:100E3C001B68012B1DD1504B19221A60504B1B689B
:100E4C000333642202FB03F3184600F0E1FB4E4B24
:100E5C0000221A60FFF7D0FC494B1B68DA1C4A4B86
:100E6C001B68D31A19464F4803F094FC642000F019
:100E7C00F7FB4D4B1B68012B07D14C4B1B684633C2
:100E8C004A4A13603C2000F0D7FB454B1B68012BF2
:100E9C001BD13D4B1B6801333B4A13603C4B1B6819
:100EAC009A1C394B1B68D31A19463B4803F072FC49
:100EBC00374B1B689A1C344B1B68D31A194637489E
:100ECC0003F068FC642000F0CBFB394B1B68012B52
:100EDC0040F0B880FFF73CFC3C2000F0D5FBB1E0C3
:100EEC00264B1B68012B2FD1234B1A221A60284B3F
:100EFC001B680233642202FB03F3184600F088FBE4
:100F0C000021244801F020FF3C2000F095FB1E4BF3
:100F1C0000221A601E4B1B689A1C1B4B1B68D31AB1
:100F2C001946244803F036FC194B1B689A1C164BC7
:100F3C001B68D31A1946194803F02CFC642000F0E6
:100F4C008FFB3D2000F0A0FB154B1B68012B7BD1C8
:100F5C000D4B1B6801330C4A1360094B1B68DA1CE0
:100F6C00094B1B68D31A19460E4803F013FC642076
:100F7C0000F076FB68E000BFE000002000010020DC
:100F8C00E800002068580008F4000020745800089D
:100F9C00EC00002028010020845800089858000814
:100FAC0010010020AC58000808010020F8000020B7
:100FBC0018010020BC580008264B1B68012B05D1DA
:100FCC00012000F025FB244B01221A60234B1B68E7
:100FDC00012B07D1224B1B684633214A13603C205E
:100FEC0000F02AFB1F4B1B68012B1BD11E4B1B68EF
:100FFC0001331D4A13601D4B1B689A1C1A4B1B684E
:10100C00D31A19461A4803F0C5FB184B1B689A1CD7
:10101C00154B1B68D31A1946164803F0BBFB64200A
:10102C0000F01EFB144B1B68012B0FD1FFF790FB3C
:10103C003C2000F029FB09E000BF08E000BF06E0FF
:10104C0000BF04E000BF02E000BF00E000BF00BF33
:10105C0080BD00BF00010020E0000020080100203E
:10106C00F800002010010020F4000020EC0000200B
:10107C00BC580008985800081801002080B500AF33
:10108C00654B1B68152B00F08380152B00F3BB8080
:10109C00132B02D0142B3DD0B5E0FFF751F80346CB
:1010AC00012B0ED15D4803F0FBFB5D4B1A685D4BC9
:1010BC001B6813445D2B04DC5A4B1B680133594AE3
:1010CC001360FFF74FF80346012B13D1564803F07A
:1010DC00E7FB534B1A68534B1B681344504A13607D
:1010EC00504B00221A604E4B1A68504B1B68D31A97
:1010FC004F4A1360FFF748F80346012B40F08580F8
:10110C00454B14221A604B4803F0CAFB454B002296
:10111C001A607AE0FFF714F80346012B0ED13F4812
:10112C0003F0BEFB414B1A683E4B1B681344602B0B
:10113C0004DC3C4B1B6801333A4A1360FFF712F88E
:10114C000346012B15D1384803F0AAFB374B1A681C
:10115C00344B1B681344354A1360344B1B685A1DBF
:10116C00334B1B681344053B2D4A13602D4B002257
:10117C001A60FFF709F80346012B48D1264B1522BC
:10118C001A602D4803F08CFB264B00221A603EE0BF
:10119C00FEF7D6FF0346012B0ED1204803F080FB4F
:1011AC00234B1A681F4B1B6813445F2B04DC1D4B2D
:1011BC001B6801331B4A1360FEF7D4FF0346012B57
:1011CC0015D1194803F06CFB194B1A68154B1B68A9
:1011DC001344174A1360154B1B685A1D144B1B689C
:1011EC001344053B0E4A13600E4B00221A60FEF7A7
:1011FC00CBFF0346012B0CD1074B01221A60094B84
:10120C0000221A6005E000BF04E000BF02E000BF4E
:10121C0000E000BF00BF80BDE0000020D0580008F7
:10122C00E4000020F0000020E4580008EC0000204E
:10123C00E8000020F05800080059000880B582B082
:10124C0000AF7860391D64230122044802F09CFC35
:10125C007B6818460837BD4680BD00BFB80100202A
:10126C0080B500AF00F092FC00F01EF800F04AF9D7
:10127C0000F05CF800F0A6F800F01AF9084801F04C
:10128C00B9FC084B01221A60012000F0C1F9FFF7EC
:10129C00C3FAFFF7E1FCFFF743FDFFF7EFFEF6E7BC
:1012AC0070010020E000002080B590B000AF07F185
:1012BC00180328220021184603F064FA3B1D002273
:1012CC001A605A609A60DA601A610223BB610123CA
:1012DC00BB621023FB6202237B630023BB634FF4CE
:1012EC006013FB6307F11803184601F025F8034659
:1012FC00002B01D000F086F90F237B600223BB602A
:10130C000023FB604FF480633B6100237B613B1D3A
:10131C000221184601F090FA0346002B01D000F090
:10132C0071F900BF4037BD4680BD000080B586B066
:10133C0000AF07F1080300221A605A609A60DA6065
:10134C003B4600221A605A601D4B4FF080421A60D7
:10135C001B4B4FF6FF125A60194B00229A60184B28
:10136C000922DA60164B00221A61154B00229A6191
:10137C00134801F0EFFB0346002B01D000F042F9BB
:10138C004FF48053BB6007F1080319460C4801F079
:10139C00ABFF0346002B01D000F034F900233B6077
:1013AC0000237B603B461946054802F02DFB0346A3
:1013BC00002B01D000F026F900BF1837BD4680BDC8
:1013CC007001002080B58EB000AF07F12803002219
:1013DC001A605A609A60DA6007F1200300221A60E2
:1013EC005A603B1D00221A605A609A60DA601A61DA
:1013FC005A619A612C4B2D4A1A602B4B40F2D73212
:10140C005A60294B00229A60274BFE22DA60264B49
:10141C0000221A61244B00229A61234801F09AFBA6
:10142C000346002B01D000F0EDF84FF48053BB6263
:10143C0007F1280319461C4801F056FF0346002B00
:10144C0001D000F0DFF8184801F026FC0346002B11
:10145C0001D000F0D7F800233B6200237B6207F138
:10146C0020031946104802F0CFFA0346002B01D096
:10147C0000F0C8F860237B600023BB600023FB6096
:10148C0000237B613B1D00221946074801F06AFED0
:10149C000346002B01D000F0B5F8034800F0E0F94A
:1014AC0000BF3837BD4680BD280100200004004035
:1014BC0080B500AF114B124A1A60104B4FF4165204
:1014CC005A600E4B00229A600C4B0022DA600B4BD8
:1014DC0000221A61094B0C225A61084B00229A61B6
:1014EC00064B0022DA61054802F0FEFA0346002B97
:1014FC0001D000F087F800BF80BD00BFB80100200C
:10150C000044004080B586B000AF07F1080300220C
:10151C001A605A609A60DA602E4B9B692D4A43F030
:10152C00040393612B4B9B6903F004037B607B6882
:10153C00284B9B69274A43F008039361254B9B6911
:10154C0003F008033B603B6800224FF4876122489C
:10155C0000F0D9FE00224FF4A061204800F0D3FE29
:10156C001323BB600023FB6001233B6107F10803DD
:10157C0019461A4800F02CFD0123BB600023FB60C8
:10158C0001233B6107F108031946134800F020FDC5
:10159C004FF48763BB600123FB6000233B61022394
:1015AC007B6107F1080319460B4800F011FD4FF45D
:1015BC00A063BB600123FB6000233B6102237B61C2
:1015CC0007F108031946054800F002FD00BF183763
:1015DC00BD4680BD00100240000C014000080140D7
:1015EC0080B582B000AF786000F062F8FEF720FEA4
:1015FC00FEF772FEFEF7C4FEFEF716FF00BF0837BB
:10160C00BD4680BD80B400AF72B600BFFEE70000DF
:10161C0080B483B000AF7860054A7B681360054BDB
:10162C0000221A6000BF0C37BD4680BC704700BF5B
:10163C00FC0000200001002080B483B000AF786073
:10164C00054A7B681360054B00221A6000BF0C37FB
:10165C00BD4680BC704700BF04010020080100207B
:10166C0080B483B000AF7860054A7B681360054B8B
:10167C0000221A6000BF0C37BD4680BC704700BF0B
:10168C000C0100201001002080B483B000AF786002
:10169C00054A7B681360054B00221A6000BF0C37AB
:1016AC00BD4680BC704700BF14010020180100200B
:1016BC0080B500AF284B1B681846FEF709FF264B78
:1016CC001B681846FEF7A8FF234B1B681846FEF74D
:1016DC00D5FF224B1B68002B0BDD204B1B68013BFD
:1016EC001E4A13601D4B1B68002B02DC1C4B012295
:1016FC001A601C4B1B68002B0BDD1A4B1B68013B43
:10170C00184A1360174B1B68002B02DC164B012286
:10171C001A60164B1B68002B0BDD144B1B68013B2E
:10172C00124A1360114B1B68002B02DC104B012278
:10173C001A60104B1B68002B0BDD0E4B1B68013B1A
:10174C000C4A13600B4B1B68002B02DC0A4B01226A
:10175C001A6000BF80BD00BFE0000020FC0000202C
:10176C000001002004010020080100200C010020D1
:10177C0010010020140100201801002080B485B055
:10178C0000AF154B9B69144A43F001039361124B54
:10179C009B6903F00103BB60BB680F4BDB690E4A0E
:1017AC0043F08053D3610C4BDB6903F080537B60B7
:1017BC007B680A4B5B68FB60FB6823F0E063FB60B3
:1017CC00FB6843F00073FB60044AFB68536000BF86
:1017DC001437BD4680BC7047001002400000014029
:1017EC0080B584B000AF78607B681B68B3F1804F24
:1017FC0014D1194BDB69184A43F00103D361164B22
:10180C00DB6903F00103FB60FB68002200211C2054
:10181C0000F0F5FA1C2000F00EFB18E07B681B684A
:10182C000E4A934213D10C4BDB690B4A43F0020373
:10183C00D361094BDB6903F00203BB60BB68002278
:10184C0000211D2000F0DBFA1D2000F0F4FA00BF8F
:10185C001037BD4680BD00BF0010024000040040A0
:10186C0080B588B000AF786007F1100300221A60D1
:10187C005A609A60DA607B681B680F4A934217D1F2
:10188C000E4B9B690D4A43F0040393610B4B9B6910
:10189C0003F00403FB60FB6840233B6102237B6184
:1018AC000223FB6107F110031946054800F090FB79
:1018BC0000BF2037BD4680BD000400400010024030
:1018CC000008014080B588B000AF786007F11003C4
:1018DC0000221A605A609A60DA607B681B681F4AA3
:1018EC00934237D11E4BDB691D4A43F40033D3615D
:1018FC001B4BDB6903F40033FB60FB68184B9B69E3
:10190C00174A43F004039361154B9B6903F00403DE
:10191C00BB60BB6804233B6102237B610323FB6137
:10192C0007F1100319460F4800F052FB08233B61E6
:10193C0000237B610023BB6107F1100319460948A2
:10194C0000F046FB00220021262000F058FA262049
:10195C0000F071FA00BF2037BD4680BD0044004046
:10196C00001002400008014080B400AFFEE780B4D4
:10197C0000AFFEE780B400AFFEE780B400AFFEE737
:10198C0080B400AFFEE780B400AF00BFBD4680BCA2
:10199C00704780B400AF00BFBD4680BC704780B4B8
:1019AC0000AF00BFBD4680BC704780B500AF00F0F3
:1019BC0033F900BF80BD000080B500AF024801F0D4
:1019CC00C9FA00BF80BD00BF7001002080B500AF18
:1019DC00024801F0BFFA00BF80BD00BF2801002003
:1019EC0080B500AF024802F053F900BF80BD00BFC4
:1019FC00B801002080B586B000AFF860B9607A609D
:101A0C0000237B610AE0AFF300800146BB685A1CDF
:101A1C00BA60CAB21A707B6901337B617A697B68E0
:101A2C009A42F0DB7B6818461837BD4680BD80B5FE
:101A3C0086B000AFF860B9607A6000237B6109E082
:101A4C00BB685A1CBA601B781846FFF7F7FB7B691A
:101A5C0001337B617A697B689A42F1DB7B681846BB
:101A6C001837BD4680BD80B483B000AF78604FF0AE
:101A7C00FF3318460C37BD4680BC704780B483B02A
:101A8C0000AF786039603B684FF400525A60002315
:101A9C0018460C37BD4680BC704780B483B000AF8D
:101AAC007860012318460C37BD4680BC704780B463
:101ABC0085B000AFF860B9607A600023184614371F
:101ACC00BD4680BC7047000080B586B000AF786022
:101ADC00144A154BD31A7B617B693B61134B1B6812
:101AEC00002B02D1114B124A1A60104B1A687B68FA
:101AFC0013443A699A4207D202F01AFE03460C22AA
:101B0C001A604FF0FF3309E0084B1B68FB60074B72
:101B1C001A687B681344054A1360FB68184618372B
:101B2C00BD4680BD00500020000400001C010020B8
:101B3C001802002080B400AF00BFBD4680BC7047C7
:101B4C00FFF7F8FF0B480C490C4A002302E0D4586D
:101B5C00C4500433C4188C42F9D3094A094C0023ED
:101B6C0001E013600432A242FBD302F0E7FDFFF761
:101B7C0077FB704700000020B0000020DC59000803
:101B8C00B000002014020020FEE7000080B500AF7A
:101B9C00084B1B68074A43F010031360032000F046
:101BAC0023F90F2000F008F8FFF7E8FD0023184692
:101BBC0080BD00BF0020024080B582B000AF7860CD
:101BCC00124B1A68124B1B7819464FF47A73B3FBFD
:101BDC00F1F3B2FBF3F3184600F03BF90346002B8C
:101BEC0001D001230EE07B680F2B0AD80022796804
:101BFC004FF0FF3000F003F9064A7B6813600023B6
:101C0C0000E0012318460837BD4680BD4000002087
:101C1C00480000204400002080B400AF054B1B7826
:101C2C001A46054B1B681344034A136000BFBD469C
:101C3C0080BC7047480000200002002080B400AF38
:101C4C00024B1B681846BD4680BC70470002002042
:101C5C0080B485B000AF78607B6803F00703FB604D
:101C6C000C4BDB68BB60BA684FF6FF031340BB60DC
:101C7C00FB681A02BB68134343F0BF6343F40033A1
:101C8C00BB60044ABB68D36000BF1437BD4680BC40
:101C9C00704700BF00ED00E080B400AF044BDB6880
:101CAC001B0A03F007031846BD4680BC704700BFF3
:101CBC0000ED00E080B483B000AF0346FB7197F9F0
:101CCC000730002B0BDBFB7903F01F02064997F959
:101CDC0007305B09012000FA02F241F8232000BF13
:101CEC000C37BD4680BC704700E100E080B483B087
:101CFC0000AF03463960FB7197F90730002B0ADB04
:101D0C003B68DAB20C4997F907301201D2B20B4496
:101D1C0083F800230AE03B68DAB20849FB7903F048
:101D2C000F03043B1201D2B20B441A7600BF0C37DE
:101D3C00BD4680BC704700BF00E100E000ED00E054
:101D4C0080B489B000AFF860B9607A60FB6803F0CA
:101D5C000703FB61FB69C3F10703042B28BF0423B2
:101D6C00BB61FB690433062B02D9FB69033B00E022
:101D7C0000237B614FF0FF32BB6902FA03F3DA43B5
:101D8C00BB681A407B699A404FF0FF317B6901FABE
:101D9C0003F3D9437B680B40134318462437BD46E5
:101DAC0080BC704780B582B000AF78607B68013B27
:101DBC00B3F1807F01D301230FE00A4A7B68013B1A
:101DCC0053600F214FF0FF30FFF790FF054B0022BF
:101DDC009A60044B07221A60002318460837BD4648
:101DEC0080BD00BF10E000E080B582B000AF78602D
:101DFC007868FFF72DFF00BF0837BD4680BD80B562
:101E0C0086B000AF0346B9607A60FB7300237B6138
:101E1C00FFF742FF78617A68B9687869FFF790FF3D
:101E2C00024697F90F3011461846FFF75FFF00BFC7
:101E3C001837BD4680BD80B582B000AF0346FB713C
:101E4C0097F907301846FFF735FF00BF0837BD4636
:101E5C0080BD80B582B000AF78607868FFF7A2FFD4
:101E6C00034618460837BD4680BD80B485B000AF28
:101E7C0078600023FB737B6893F82130DBB2022B74
:101E8C0008D07B6804229A637B68002283F82020A8
:101E9C00012320E07B681B681A687B681B6822F0B2
:101EAC000E021A607B681B681A687B681B6822F03C
:101EBC0001021A607B681A6C7B68DB6B012101FAEA
:101ECC0002F25A607B68012283F821207B68002291
:101EDC0083F82020FB7B18461437BD4680BC704726
:101EEC0080B584B000AF78600023FB737B6893F8F7
:101EFC002130DBB2022B05D07B6804229A630123CC
:101F0C00FB7351E07B681B681A687B681B6822F0C6
:101F1C000E021A607B681B681A687B681B6822F0CB
:101F2C0001021A607B681B68224A934229D07B68A5
:101F3C001B68214A934222D07B681B681F4A93423C
:101F4C001AD07B681B681E4A934212D07B681B68B0
:101F5C001C4A93420AD07B681B681B4A934202D1ED
:101F6C004FF480130EE04FF080730BE04FF480338E
:101F7C0008E04FF4805305E04FF4807302E0102327
:101F8C0000E00123114A53607B68012283F8212071
:101F9C007B68002283F820207B685B6B002B03D0CE
:101FAC007B685B6B78689847FB7B18461037BD469F
:101FBC0080BD00BF080002401C00024030000240FF
:101FCC0044000240580002406C00024000000240F5
:101FDC0080B48BB000AF7860396000237B62002343
:101FEC003B6269E101227B6A02FA03F3FB613B6805
:101FFC001B68FA691340BB61BA69FB699A4240F0ED
:10200C0058813B685B689A4A93425ED0984A9342E7
:10201C0075D8984A934258D0964A93426FD8964AAC
:10202C00934252D0944A934269D8944A93424CD0EA
:10203C00924A934263D8924A934246D0904A934232
:10204C005DD8122B2AD8122B59D801A252F823F0A2
:10205C00D7200008B1200008C32000080521000883
:10206C000B2100080B2100080B2100080B21000894
:10207C000B2100080B2100080B2100080B21000884
:10208C000B2100080B2100080B2100080B21000874
:10209C000B210008B9200008CD200008794A934292
:1020AC0013D02CE03B68DB683B6229E03B68DB68C3
:1020BC0004333B6224E03B68DB6808333B621FE07F
:1020CC003B68DB680C333B621AE03B689B68002B77
:1020DC0002D104233B6213E03B689B68012B05D1C2
:1020EC0008233B627B68FA691A6109E008233B62AA
:1020FC007B68FA695A6103E000233B6200E000BF91
:10210C00BB69FF2B01D87B6801E07B6804337B61E2
:10211C00BB69FF2B02D87B6A9B0002E07B6A083B01
:10212C009B003B617B691A680F213B6901FA03F341
:10213C00DB431A40396A3B6901FA03F31A437B69A2
:10214C001A603B685B6803F08053002B00F0B18091
:10215C004D4B9B694C4A43F0010393614A4B9B697D
:10216C0003F00103BB60BB68484A7B6A9B080233DF
:10217C0052F82330FB607B6A03F003039B000F22B1
:10218C0002FA03F3DB43FA681340FB607B68404AB6
:10219C00934213D07B683F4A93420DD07B683E4AF2
:1021AC00934207D07B683D4A934201D1032306E05A
:1021BC00042304E0022302E0012300E000237A6AF6
:1021CC0002F0030292009340FA681343FB602F491C
:1021DC007B6A9B080233FA6841F823203B685B68F2
:1021EC0003F48013002B06D02D4B9A682C49BB6945
:1021FC0013438B6006E02A4B9A68BB69DB43284982
:10220C0013408B603B685B6803F40013002B06D013
:10221C00234BDA682249BB691343CB6006E0204BA1
:10222C00DA68BB69DB431E491340CB603B685B68D3
:10223C0003F40033002B06D0194B5A681849BB69BC
:10224C0013434B6006E0164B5A68BB69DB431449D9
:10225C0013404B603B685B6803F48033002B21D048
:10226C000F4B1A680E49BB6913430B6021E000BF8A
:10227C00000032100000311000002210000021106C
:10228C00000012100000111000100240000001406C
:10229C0000080140000C01400010014000140140F6
:1022AC00000401400B4B1A68BB69DB43094913401E
:1022BC000B607B6A01337B623B681A687B6A22FA8B
:1022CC0003F3002B7FF48EAE00BF00BF2C37BD464E
:1022DC0080BC70470004014080B485B000AF7860CA
:1022EC000B467B807B689A687B881340002B02D05E
:1022FC000123FB7301E00023FB73FB7B18461437AF
:10230C00BD4680BC704780B483B000AF78600B468C
:10231C007B8013467B707B78002B03D07A887B689C
:10232C001A6103E07B881A047B681A6100BF0C37C2
:10233C00BD4680BC7047000080B586B000AF7860A9
:10234C007B68002B01D101236CE27B681B6803F0D6
:10235C000103002B00F08780924B5B6803F00C03A9
:10236C00042B0CD08F4B5B6803F00C03082B12D1A1
:10237C008C4B5B6803F48033B3F5803F0BD1894BF6
:10238C001B6803F40033002B6CD07B685B68002B5C
:10239C0068D1012346E27B685B68B3F5803F06D1C8
:1023AC00804B1B687F4A43F4803313602EE07B68BC
:1023BC005B68002B0CD17B4B1B687A4A23F480336F
:1023CC001360784B1B68774A23F4802313601DE05D
:1023DC007B685B68B3F5A02F0CD1724B1B68714AFC
:1023EC0043F4802313606F4B1B686E4A43F48033B5
:1023FC0013600BE06B4B1B686A4A23F48033136049
:10240C00684B1B68674A23F4802313607B685B6806
:10241C00002B13D0FFF712FC386108E0FFF70EFC1D
:10242C0002463B69D31A642B01D90323FAE15D4BB5
:10243C001B6803F40033002BF0D014E0FFF7FEFB15
:10244C00386108E0FFF7FAFB02463B69D31A642BAC
:10245C0001D90323E6E1534B1B6803F40033002B33
:10246C00F0D100E000BF7B681B6803F00203002B77
:10247C0063D04C4B5B6803F00C03002B0BD0494B27
:10248C005B6803F00C03082B1CD1464B5B6803F410
:10249C008033002B16D1434B1B6803F00203002B37
:1024AC0005D07B681B69012B01D00123BAE13D4BA0
:1024BC001B6823F0F8027B685B69DB003949134326
:1024CC000B603AE07B681B69002B20D0364B012255
:1024DC001A60FFF7B3FB386108E0FFF7AFFB024669
:1024EC003B69D31A022B01D903239BE12D4B1B68AB
:1024FC0003F00203002BF0D02A4B1B6823F0F802E8
:10250C007B685B69DB00274913430B6015E0264BA6
:10251C0000221A60FFF792FB386108E0FFF78EFB90
:10252C0002463B69D31A022B01D903237AE11D4BD6
:10253C001B6803F00203002BF0D17B681B6803F0CF
:10254C000803002B3AD07B689B69002B19D0174BE2
:10255C0001221A60FFF772FB386108E0FFF76EFB8F
:10256C0002463B69D31A022B01D903235AE10D4BC6
:10257C005B6A03F00203002BF0D0012000F0CCFAD0
:10258C001CE00A4B00221A60FFF758FB38610FE081
:10259C00FFF754FB02463B69D31A022B08D90323DD
:1025AC0040E100BF00100240000042428004424261
:1025BC009E4B5B6A03F00203002BE9D17B681B681E
:1025CC0003F00403002B00F0A6800023FB75974B4F
:1025DC00DB6903F08053002B0DD1944BDB69934ADC
:1025EC0043F08053D361914BDB6903F08053BB60A4
:1025FC00BB680123FB758E4B1B6803F48073002BA7
:10260C0018D18B4B1B688A4A43F480731360FFF715
:10261C0015FB386108E0FFF711FB02463B69D31A42
:10262C00642B01D90323FDE0814B1B6803F48073F9
:10263C00002BF0D07B68DB68012B06D17B4B1B6A2F
:10264C007A4A43F0010313622DE07B68DB68002BB0
:10265C000CD1764B1B6A754A23F001031362734B42
:10266C001B6A724A23F0040313621CE07B68DB686C
:10267C00052B0CD16D4B1B6A6C4A43F0040313629F
:10268C006A4B1B6A694A43F0010313620BE0674B08
:10269C001B6A664A23F001031362644B1B6A634A8C
:1026AC0023F0040313627B68DB68002B15D0FFF763
:1026BC00C5FA38610AE0FFF7C1FA02463B69D31A42
:1026CC0041F28832934201D90323ABE0574B1B6A8A
:1026DC0003F00203002BEED014E0FFF7AFFA3861E1
:1026EC000AE0FFF7ABFA02463B69D31A41F2883293
:1026FC00934201D9032395E04C4B1B6A03F0020370
:10270C00002BEED1FB7D012B05D1484BDB69474AF1
:10271C0023F08053D3617B68DB69002B00F0818050
:10272C00424B5B6803F00C03082B61D07B68DB69C0
:10273C00022B46D13F4B00221A60FFF77FFA38611B
:10274C0008E0FFF77BFA02463B69D31A022B01D94A
:10275C00032367E0354B1B6803F00073002BF0D1AB
:10276C007B681B6AB3F5803F08D1304B5B6823F460
:10277C0000327B689B682D4913434B602B4B5B6885
:10278C0023F474127B68196A7B685B6A0B432749D4
:10279C0013434B60274B01221A60FFF74FFA386145
:1027AC0008E0FFF74BFA02463B69D31A022B01D91A
:1027BC00032337E01D4B1B6803F00073002BF0D094
:1027CC002FE01C4B00221A60FFF738FA386108E042
:1027DC00FFF734FA02463B69D31A022B01D90323C3
:1027EC0020E0124B1B6803F00073002BF0D118E0B3
:1027FC007B68DB69012B01D1012313E00B4B5B6878
:10280C00FB60FB6803F480327B681B6A9A4206D13A
:10281C00FB6803F470127B685B6A9A4201D0012357
:10282C0000E0002318461837BD4680BD001002405A
:10283C00007000406000424280B584B000AF786008
:10284C0039607B68002B01D10123D0E06A4B1B68F7
:10285C0003F007033A689A4210D9674B1B6823F0C0
:10286C00070265493B6813430B60634B1B6803F01D
:10287C0007033A689A4201D00123B8E07B681B68D1
:10288C0003F00203002B20D07B681B6803F00403C9
:10289C00002B05D0594B5B68584A43F4E0635360F6
:1028AC007B681B6803F00803002B05D0534B5B6857
:1028BC00524A43F460535360504B5B6823F0F00270
:1028CC007B689B684D4913434B607B681B6803F026
:1028DC000103002B40D07B685B68012B07D1474B71
:1028EC001B6803F40033002B15D101237FE07B68B8
:1028FC005B68022B07D1414B1B6803F00073002B64
:10290C0009D1012373E03D4B1B6803F00203002B3C
:10291C0001D101236BE0394B5B6823F003027B6828
:10292C005B68364913434B60FFF788F9F8600AE09F
:10293C00FFF784F90246FB68D31A41F288329342BE
:10294C0001D9032353E02D4B5B6803F00C027B6829
:10295C005B689B009A42EBD1274B1B6803F0070383
:10296C003A689A4210D2244B1B6823F00702224982
:10297C003B6813430B60204B1B6803F007033A685A
:10298C009A4201D0012332E07B681B6803F00403F8
:10299C00002B08D0194B5B6823F4E0627B68DB6882
:1029AC00164913434B607B681B6803F00803002B2C
:1029BC0009D0124B5B6823F460527B681B69DB0007
:1029CC000E4913434B6000F021F802460B4B5B6839
:1029DC001B0903F00F030A49CB5C22FA03F3094AE3
:1029EC001360094B1B681846FFF7E6F800231846DE
:1029FC001037BD4680BD00BF0020024000100240D1
:102A0C0010590008400000204400002080B487B01A
:102A1C0000AF0023FB600023BB6000237B6100231D
:102A2C007B6000233B611E4B5B68FB60FB6803F023
:102A3C000C03042B02D0082B03D027E0194B3B616D
:102A4C0027E0FB689B0C03F00F03174AD35C7B60F9
:102A5C00FB6803F48033002B10D0114B5B685B0CCC
:102A6C0003F00103114AD35CBB607B680D4A02FB87
:102A7C0003F2BB68B2FBF3F37B6104E07B680C4AA6
:102A8C0002FB03F37B617B693B6102E0054B3B611D
:102A9C0000BF3B6918461C37BD4680BC704700BF61
:102AAC000010024000127A0028590008385900081A
:102ABC0000093D0080B400AF024B1B681846BD46B0
:102ACC0080BC70474000002080B500AFFFF7F2FFDC
:102ADC000246054B5B681B0A03F007030349CB5CFA
:102AEC0022FA03F3184680BD00100240205900085A
:102AFC0080B500AFFFF7DEFF0246054B5B68DB0AD3
:102B0C0003F007030349CB5C22FA03F3184680BD9C
:102B1C00001002402059000880B485B000AF7860E6
:102B2C000A4B1B680A4AA2FB03235B0A7A6802FB66
:102B3C0003F3FB6000BFFB685A1EFA60002BF9D14F
:102B4C0000BF00BF1437BD4680BC7047400000205A
:102B5C00D34D621080B582B000AF78607B68002BDB
:102B6C0001D1012341E07B6893F83D30DBB2002BAF
:102B7C0006D17B68002283F83C207868FEF730FE93
:102B8C007B68022283F83D207B681A687B680433DB
:102B9C001946104600F094FC7B68012283F846200D
:102BAC007B68012283F83E207B68012283F83F205A
:102BBC007B68012283F840207B68012283F8412046
:102BCC007B68012283F842207B68012283F8432032
:102BDC007B68012283F844207B68012283F845201E
:102BEC007B68012283F83D20002318460837BD4638
:102BFC0080BD000080B485B000AF78607B6893F82E
:102C0C003D30DBB2012B01D001233AE07B6802227C
:102C1C0083F83D207B681B68DA687B681B6842F090
:102C2C000102DA607B681B68184A93420ED07B68FD
:102C3C001B68B3F1804F09D07B681B68144A934220
:102C4C0004D07B681B68134A934211D17B681B68C4
:102C5C009B6803F00703FB60FB68062B10D07B68B6
:102C6C001B681A687B681B6842F001021A6007E057
:102C7C007B681B681A687B681B6842F001021A604B
:102C8C00002318461437BD4680BC7047002C014009
:102C9C00000400400008004080B582B000AF7860AE
:102CAC007B68002B01D1012341E07B6893F83D3018
:102CBC00DBB2002B06D17B68002283F83C207868BD
:102CCC0000F039F87B68022283F83D207B681A6893
:102CDC007B6804331946104600F0F2FB7B68012236
:102CEC0083F846207B68012283F83E207B68012212
:102CFC0083F83F207B68012283F840207B68012207
:102D0C0083F841207B68012283F842207B680122F2
:102D1C0083F843207B68012283F844207B680122DE
:102D2C0083F845207B68012283F83D200023184658
:102D3C000837BD4680BD80B483B000AF786000BF5B
:102D4C000C37BD4680BC704780B584B000AF78604E
:102D5C0039603B68002B09D17B6893F83E30DBB2BD
:102D6C00012B14BF01230023DBB222E03B68042BB0
:102D7C0009D17B6893F83F30DBB2012B14BF0123E0
:102D8C000023DBB215E03B68082B09D17B6893F874
:102D9C004030DBB2012B14BF01230023DBB208E06F
:102DAC007B6893F84130DBB2012B14BF0123002365
:102DBC00DBB2002B01D001235EE03B68002B04D179
:102DCC007B68022283F83E2013E03B68042B04D17D
:102DDC007B68022283F83F200BE03B68082B04D170
:102DEC007B68022283F8402003E07B68022283F890
:102DFC0041207B681B6801223968184600F0E0FD11
:102E0C007B681B681E4A934207D17B681B685A6C0F
:102E1C007B681B6842F400425A647B681B68184A42
:102E2C0093420ED07B681B68B3F1804F09D07B684E
:102E3C001B68144A934204D07B681B68124A934265
:102E4C0011D17B681B689B6803F00703FB60FB6870
:102E5C00062B10D07B681B681A687B681B6842F0D5
:102E6C0001021A6007E07B681B681A687B681B68A4
:102E7C0042F001021A60002318461037BD4680BD8F
:102E8C00002C0140000400400008004080B582B0D6
:102E9C0000AF786039607B681B680022396818467F
:102EAC0000F08EFD7B681B68294A934217D17B6822
:102EBC001B681A6A41F211131340002B0FD17B6867
:102ECC001B681A6A40F244431340002B07D17B68FD
:102EDC001B685A6C7B681B6822F400425A647B683E
:102EEC001B681A6A41F211131340002B0FD17B6837
:102EFC001B681A6A40F244431340002B07D17B68CD
:102F0C001B681A687B681B6822F001021A603B6818
:102F1C00002B04D17B68012283F83E2013E03B6830
:102F2C00042B04D17B68012283F83F200BE03B6823
:102F3C00082B04D17B68012283F8402003E07B68D6
:102F4C00012283F84120002318460837BD4680BD76
:102F5C00002C014080B582B000AF78607B681B68A4
:102F6C001B6903F00203022B22D17B681B68DB6810
:102F7C0003F00203022B1BD17B681B686FF002026B
:102F8C001A617B6801221A777B681B689B6903F0C6
:102F9C000303002B03D0786800F076FA05E078681C
:102FAC0000F069FA786800F078FA7B6800221A77EA
:102FBC007B681B681B6903F00403042B22D17B681C
:102FCC001B68DB6803F00403042B1BD17B681B68B4
:102FDC006FF004021A617B6802221A777B681B6807
:102FEC009B6903F44073002B03D0786800F04CFA13
:102FFC0005E0786800F03FFA786800F04EFA7B68DC
:10300C0000221A777B681B681B6903F00803082BE6
:10301C0022D17B681B68DB6803F00803082B1BD1EB
:10302C007B681B686FF008021A617B6804221A77B0
:10303C007B681B68DB6903F00303002B03D0786803
:10304C0000F022FA05E0786800F015FA786800F0D4
:10305C0024FA7B6800221A777B681B681B6903F0D3
:10306C001003102B22D17B681B68DB6803F0100364
:10307C00102B1BD17B681B686FF010021A617B68E8
:10308C0008221A777B681B68DB6903F44073002BFA
:10309C0003D0786800F0F8F905E0786800F0EBF9F7
:1030AC00786800F0FAF97B6800221A777B681B6855
:1030BC001B6903F00103012B0ED17B681B68DB68D5
:1030CC0003F00103012B07D17B681B686FF0010231
:1030DC001A617868FEF784FA7B681B681B6903F039
:1030EC008003802B0ED17B681B68DB6803F08003A8
:1030FC00802B07D17B681B686FF080021A6178689F
:10310C0000F0E9FC7B681B681B6903F04003402B53
:10311C000ED17B681B68DB6803F04003402B07D1A2
:10312C007B681B686FF040021A61786800F0BEF98A
:10313C007B681B681B6903F02003202B0ED17B6876
:10314C001B68DB6803F02003202B07D17B681B680E
:10315C006FF020021A61786800F0B4FC00BF0837E9
:10316C00BD4680BD80B586B000AFF860B9607A60AE
:10317C000023FB75FB6893F83C30012B01D1022333
:10318C00AEE0FB68012283F83C207B680C2B00F23C
:10319C009F8001A252F823F0D9310008DD320008DB
:1031AC00DD320008DD32000819320008DD3200087B
:1031BC00DD320008DD3200085B320008DD32000829
:1031CC00DD320008DD3200089B320008FB681B680A
:1031DC00B968184600F0D6F9FB681B689A69FB6859
:1031EC001B6842F008029A61FB681B689A69FB68CD
:1031FC001B6822F004029A61FB681B689969BB6822
:10320C001A69FB681B680A439A6164E0FB681B68D7
:10321C00B968184600F01CFAFB681B689A69FB68D1
:10322C001B6842F400629A61FB681B689A69FB6830
:10323C001B6822F480629A61FB681B689969BB6801
:10324C001B691A02FB681B680A439A6143E0FB681E
:10325C001B68B968184600F065FAFB681B68DA69E8
:10326C00FB681B6842F00802DA61FB681B68DA69CC
:10327C00FB681B6822F00402DA61FB681B68D969E1
:10328C00BB681A69FB681B680A43DA6123E0FB68B8
:10329C001B68B968184600F0AFFAFB681B68DA695E
:1032AC00FB681B6842F40062DA61FB681B68DA6930
:1032BC00FB681B6822F48062DA61FB681B68D969C1
:1032CC00BB681B691A02FB681B680A43DA6102E0DF
:1032DC000123FB7500BFFB68002283F83C20FB7DBB
:1032EC0018461837BD4680BD80B584B000AF7860F5
:1032FC0039600023FB737B6893F83C30012B01D1C0
:10330C000223B4E07B68012283F83C207B68022214
:10331C0083F83D207B681B689B68BB60BB6823F00F
:10332C007703BB60BB6823F47F43BB607B681B687F
:10333C00BA689A603B681B68B3F5005F3ED0B3F582
:10334C00005F00F28780B3F5805F00F08680B3F5F4
:10335C00805F7FD8702B1AD0702B7BD8602B50D00D
:10336C00602B77D8502B3CD0502B73D8402B58D097
:10337C00402B6FD8302B64D0302B6BD8202B60D0E7
:10338C00202B67D8002B5CD0102B5AD062E07B68C6
:10339C0018683B6899683B685A683B68DB6800F0C2
:1033AC00F0FA7B681B689B68BB60BB6843F07703D3
:1033BC00BB607B681B68BA689A604FE07B681868D2
:1033CC003B6899683B685A683B68DB6800F0D9FA3F
:1033DC007B681B689A687B681B6842F480429A6021
:1033EC003CE07B6818683B6859683B68DB681A46A8
:1033FC0000F050FA7B681B685021184600F0A7FAC1
:10340C002CE07B6818683B6859683B68DB681A4697
:10341C0000F06EFA7B681B686021184600F097FA82
:10342C001CE07B6818683B6859683B68DB681A4687
:10343C0000F030FA7B681B684021184600F087FAD0
:10344C000CE07B681A683B681B681946104600F054
:10345C007EFA03E00123FB7300E000BF7B680122CE
:10346C0083F83D207B68002283F83C20FB7B1846C8
:10347C001037BD4680BD80B483B000AF786000BF0C
:10348C000C37BD4680BC704780B483B000AF786009
:10349C0000BF0C37BD4680BC704780B483B000AF12
:1034AC00786000BF0C37BD4680BC704780B483B0D9
:1034BC0000AF786000BF0C37BD4680BC7047000081
:1034CC0080B485B000AF786039607B681B68FB60A6
:1034DC007B68294A93420BD07B68B3F1804F07D0AD
:1034EC007B68264A934203D07B68254A934208D1D5
:1034FC00FB6823F07003FB603B685B68FA6813435E
:10350C00FB607B681C4A93420BD07B68B3F1804F05
:10351C0007D07B68194A934203D07B68184A9342C0
:10352C0008D1FB6823F44073FB603B68DB68FA68E6
:10353C001343FB60FB6823F080023B685B69134319
:10354C00FB607B68FA681A603B689A687B68DA6291
:10355C003B681A687B689A627B68074A934203D17E
:10356C003B681A697B681A637B6801225A6100BF49
:10357C001437BD4680BC7047002C0140000400404D
:10358C000008004080B487B000AF786039607B6879
:10359C001B6A7B617B681B6A23F001027B681A62E1
:1035AC007B685B683B617B689B69FB60FB6823F015
:1035BC007003FB60FB6823F00303FB603B681B6834
:1035CC00FA681343FB607B6923F002037B613B6861
:1035DC009B687A6913437B617B681C4A93420CD1CC
:1035EC007B6923F008037B613B68DB687A691343D2
:1035FC007B617B6923F004037B617B68134A9342F4
:10360C0011D13B6923F480733B613B6923F4007354
:10361C003B613B685B693A6913433B613B689B695F
:10362C003A6913433B617B683A695A607B68FA6874
:10363C009A613B685A687B685A637B687A691A623C
:10364C0000BF1C37BD4680BC704700BF002C01403A
:10365C0080B487B000AF786039607B681B6A7B618F
:10366C007B681B6A23F010027B681A627B685B68BC
:10367C003B617B689B69FB60FB6823F4E043FB6068
:10368C00FB6823F44073FB603B681B681B02FA6801
:10369C001343FB607B6923F020037B613B689B68D1
:1036AC001B017A6913437B617B681D4A93420DD1E0
:1036BC007B6923F080037B613B68DB681B017A69C3
:1036CC0013437B617B6923F040037B617B68144A65
:1036DC00934213D13B6923F480633B613B6923F430
:1036EC0000633B613B685B699B003A6913433B6138
:1036FC003B689B699B003A6913433B617B683A6961
:10370C005A607B68FA689A613B685A687B689A636E
:10371C007B687A691A6200BF1C37BD4680BC704753
:10372C00002C014080B487B000AF786039607B68B2
:10373C001B6A7B617B681B6A23F480727B681A624C
:10374C007B685B683B617B68DB69FB60FB6823F033
:10375C007003FB60FB6823F00303FB603B681B6892
:10376C00FA681343FB607B6923F400737B613B684D
:10377C009B681B027A6913437B617B681D4A9342E9
:10378C000DD17B6923F400637B613B68DB681B0212
:10379C007A6913437B617B6923F480637B617B686B
:1037AC00144A934213D13B6923F480533B613B6928
:1037BC0023F400533B613B685B691B013A6913437B
:1037CC003B613B689B691B013A6913433B617B6816
:1037DC003A695A607B68FA68DA613B685A687B68B8
:1037EC00DA637B687A691A6200BF1C37BD4680BCFD
:1037FC00704700BF002C014080B487B000AF7860E8
:10380C0039607B681B6A3B617B681B6A23F48052BE
:10381C007B681A627B685B687B617B68DB69FB6039
:10382C00FB6823F4E043FB60FB6823F44073FB600C
:10383C003B681B681B02FA681343FB603B6923F46B
:10384C0000533B613B689B681B033A6913433B6124
:10385C007B680F4A934209D17B6923F480437B61D7
:10386C003B685B699B017A6913437B617B687A696E
:10387C005A607B68FA68DA613B685A687B681A643C
:10388C007B683A691A6200BF1C37BD4680BC704722
:10389C00002C014080B487B000AFF860B9607A604A
:1038AC00FB681B6A7B61FB681B6A23F00102FB68E7
:1038BC001A62FB689B693B613B6923F0F0033B6137
:1038CC007B681B013A6913433B617B6923F00A0354
:1038DC007B617A69BB6813437B61FB683A699A61C7
:1038EC00FB687A691A6200BF1C37BD4680BC704702
:1038FC0080B487B000AFF860B9607A60FB681B6A6F
:10390C007B61FB681B6A23F01002FB681A62FB6880
:10391C009B693B613B6923F470433B617B681B03F0
:10392C003A6913433B617B6923F0A0037B61BB685D
:10393C001B017A6913437B61FB683A699A61FB68E6
:10394C007A691A6200BF1C37BD4680BC704780B4D0
:10395C0085B000AF786039607B689B68FB60FB6862
:10396C0023F07003FB603A68FB68134343F00703D2
:10397C00FB607B68FA689A6000BF1437BD4680BC58
:10398C00704780B487B000AFF860B9607A603B6074
:10399C00FB689B687B617B6923F47F437B613B689D
:1039AC001A027B681A43BB6813437A6913437B6121
:1039BC00FB687A699A6000BF1C37BD4680BC7047B3
:1039CC0080B487B000AFF860B9607A60BB6803F070
:1039DC001F03012202FA03F37B61FB681A6A7B69FD
:1039EC00DB431A40FB681A62FB681A6ABB6803F077
:1039FC001F03796801FA03F31A43FB681A6200BFCC
:103A0C001C37BD4680BC704780B485B000AF786071
:103A1C0039607B6893F83C30012B01D1022346E0DE
:103A2C007B68012283F83C207B68022283F83D20CE
:103A3C007B681B685B68FB607B681B689B68BB6072
:103A4C00FB6823F07003FB603B681B68FA68134348
:103A5C00FB607B681B68FA685A607B681B68164AB7
:103A6C0093420ED07B681B68B3F1804F09D07B6802
:103A7C001B68124A934204D07B681B68104A93421D
:103A8C000CD1BB6823F08003BB603B685B68BA68F1
:103A9C001343BB607B681B68BA689A607B68012221
:103AAC0083F83D207B68002283F83C2000231846D5
:103ABC001437BD4680BC7047002C01400004004008
:103ACC000008004080B483B000AF786000BF0C37B2
:103ADC00BD4680BC704780B483B000AF786000BF37
:103AEC000C37BD4680BC704780B582B000AF7860A3
:103AFC007B68002B01D1012342E07B6893F84130B5
:103B0C00DBB2002B06D17B68002283F8402078685A
:103B1C00FDF7D8FE7B68242283F841207B681B6864
:103B2C00DA687B681B6822F40052DA60786800F06F
:103B3C0071FD7B681B681A697B681B6822F49042D4
:103B4C001A617B681B685A697B681B6822F02A0221
:103B5C005A617B681B68DA687B681B6842F4005208
:103B6C00DA607B6800225A647B68202283F841204B
:103B7C007B68202283F842207B6800225A63002352
:103B8C0018460837BD4680BD80B58AB002AFF860D4
:103B9C00B9603B601346FB8000237B61FB6893F8A4
:103BAC004130DBB2202B6DD1BB68002B02D0FB88DF
:103BBC00002B01D1012366E0FB6800225A64FB68EC
:103BCC00212283F84120FEF739F87861FB68FA88E6
:103BDC009A84FB68FA88DA84FB689B68B3F5805F8B
:103BEC0008D1FB681B69002B04D10023FB61BB6867
:103BFC00BB6103E0BB68FB610023BB612AE03B684F
:103C0C0000937B6900228021F86800F0F9FA0346E2
:103C1C00002B01D0032336E0FB69002B0BD1BB69D1
:103C2C001B881A46FB681B68C2F308025A60BB6902
:103C3C000233BB6107E0FB691A78FB681B685A60AA
:103C4C00FB690133FB61FB68DB8C9BB2013B9AB2D5
:103C5C00FB68DA84FB68DB8C9BB2002BCFD13B6812
:103C6C0000937B6900224021F86800F0C9FA0346F2
:103C7C00002B01D0032306E0FB68202283F84120AF
:103C8C00002300E0022318462037BD4680BD00000B
:103C9C0080B5BAB000AF78607B681B681B68C7F84A
:103CAC00E4307B681B68DB68C7F8E0307B681B6816
:103CBC005B69C7F8DC300023C7F8D8300023C7F89D
:103CCC00D430D7F8E43003F00F03C7F8D830D7F866
:103CDC00D830002B0FD1D7F8E43003F02003002BA1
:103CEC0009D0D7F8E03003F02003002B03D078681C
:103CFC0000F0D1FB5BE2D7F8D830002B00F0DE806F
:103D0C00D7F8DC3003F00103002B06D1D7F8E030F4
:103D1C0003F49073002B00F0D180D7F8E43003F05B
:103D2C000103002B0BD0D7F8E03003F48073002B89
:103D3C0005D07B685B6C43F001027B685A64D7F852
:103D4C00E43003F00403002B0BD0D7F8DC3003F085
:103D5C000103002B05D07B685B6C43F002027B688F
:103D6C005A64D7F8E43003F00203002B0BD0D7F8D9
:103D7C00DC3003F00103002B05D07B685B6C43F057
:103D8C0004027B685A64D7F8E43003F00803002B74
:103D9C0011D0D7F8E03003F02003002B05D1D7F871
:103DAC00DC3003F00103002B05D07B685B6C43F027
:103DBC0008027B685A647B685B6C002B00F0F28114
:103DCC00D7F8E43003F02003002B08D0D7F8E0300C
:103DDC0003F02003002B02D0786800F05CFB7B68BA
:103DEC001B685B6903F04003002B14BF0123002305
:103DFC00DBB2C7F8D4307B685B6C03F00803002B94
:103E0C0003D1D7F8D430002B4FD0786800F066FA85
:103E1C007B681B685B6903F04003002B41D07B6817
:103E2C001B681433C7F89C30D7F89C3053E8003F1C
:103E3C00C7F89830D7F8983023F04003C7F8D03043
:103E4C007B681B681433D7F8D020C7F8A820C7F8B4
:103E5C00A430D7F8A410D7F8A82041E80023C7F85D
:103E6C00A030D7F8A030002BD9D17B68DB6B002BAE
:103E7C0013D07B68DB6B7E4A5A637B68DB6B18461E
:103E8C00FEF72EF80346002B16D07B68DB6B5B6BC2
:103E9C007A68D26B104698470EE0786800F09CF96F
:103EAC000AE0786800F098F906E0786800F094F978
:103EBC007B6800225A6475E100BF73E17B681B6B61
:103ECC00012B40F04F81D7F8E43003F01003002BA6
:103EDC0000F04881D7F8E03003F01003002B00F01D
:103EEC0041810023BB607B681B681B68BB607B68DF
:103EFC001B685B68BB60BB687B681B685B6903F015
:103F0C004003002B00F0B6807B68DB6B1B685B68A2
:103F1C00A7F8BE30B7F8BE30002B00F045817B68A7
:103F2C009B8DB7F8BE209A4280F03E817B68B7F833
:103F3C00BE20DA857B68DB6B9B69202B00F08880C8
:103F4C007B681B680C33C7F88830D7F8883053E887
:103F5C00003FC7F88430D7F8843023F48073C7F857
:103F6C00B8307B681B680C33D7F8B820C7F894209E
:103F7C00C7F89030D7F89010D7F8942041E8002378
:103F8C00C7F88C30D7F88C30002BD9D17B681B68E4
:103F9C0014337B677B6F53E8003F3B673B6F23F029
:103FAC000103C7F8B4307B681B681433D7F8B4200E
:103FBC00C7F88020FB67F96FD7F8802041E8002311
:103FCC00BB67BB6F002BE1D17B681B6814333B666E
:103FDC003B6E53E8003FFB65FB6D23F04003C7F8D5
:103FEC00B0307B681B681433D7F8B020FA66BB6618
:103FFC00B96EFA6E41E800237B667B6E002BE3D131
:10400C007B68202283F842207B6800221A637B683D
:10401C001B680C33FB64FB6C53E8003FBB64BB6C4C
:10402C0023F01003C7F8AC307B681B680C33D7F84F
:10403C00AC20BA657B65796DBA6D41E800233B65B0
:10404C003B6D002BE3D17B68DB6B1846FDF70DFF56
:10405C007B6802225A637B689A8D7B68DB8D9BB2EE
:10406C00D31A9BB21946786800F0BFF89CE000BFE9
:10407C00AD4300087B689A8D7B68DB8D9BB2D31AAD
:10408C00A7F8CE307B68DB8D9BB2002B00F08E80C6
:10409C00B7F8CE30002B00F089807B681B680C339E
:1040AC00BB63BB6B53E8003F7B637B6B23F4907368
:1040BC00C7F8C8307B681B680C33D7F8C8207A6403
:1040CC003B64396C7A6C41E80023FB63FB6B002B7F
:1040DC00E3D17B681B6814337B627B6A53E8003F37
:1040EC003B623B6A23F00103C7F8C4307B681B6852
:1040FC001433D7F8C4203A63FB62F96A3A6B41E88F
:10410C000023BB62BB6A002BE3D17B68202283F8BF
:10411C0042207B6800221A637B681B680C333B616E
:10412C003B6953E8003FFB60FB6823F01003C7F8C2
:10413C00C0307B681B680C33D7F8C020FA61BB61B8
:10414C00B969FA6941E800237B617B69002BE3D1F3
:10415C007B6802225A63B7F8CE301946786800F0B3
:10416C0044F823E0D7F8E43003F08003002B09D0A7
:10417C00D7F8E03003F08003002B03D0786800F010
:10418C0023F914E0D7F8E43003F04003002B0ED0F1
:10419C00D7F8E03003F04003002B08D0786800F02B
:1041AC0062F904E000BF02E000BF00E000BFE837A6
:1041BC00BD4680BD80B483B000AF786000BF0C37C3
:1041CC00BD4680BC704780B483B000AF786000BF40
:1041DC000C37BD4680BC704780B483B000AF7860AC
:1041EC0000BF0C37BD4680BC704780B483B000AFB5
:1041FC0078600B467B8000BF0C37BD4680BC704797
:10420C0080B590B000AFF860B9603B601346FB71AD
:10421C0050E0BB6CB3F1FF3F4CD0BB6C002B07D014
:10422C00FDF70CFD02463B68D31ABA6C9A4241D298
:10423C00FB681B680C33BB62BB6A53E8003F7B62B4
:10424C007B6A23F4D073FB63FB681B680C33FA6B3B
:10425C007A633B63396B7A6B41E80023FB62FB6A40
:10426C00002BE5D1FB681B6814337B617B6953E839
:10427C00003F3B613B6923F00103BB63FB681B6898
:10428C001433BA6B3A62FB61F9693A6A41E800236C
:10429C00BB61BB69002BE5D1FB68202283F8412070
:1042AC00FB68202283F84220FB68002283F8402020
:1042BC0003230FE0FB681B681A68BB681340BA68DD
:1042CC009A420CBF01230023DBB21A46FB799A42B7
:1042DC009FD0002318464037BD4680BD80B495B0B2
:1042EC0000AF78607B681B680C337B637B6B53E897
:1042FC00003F3B633B6B23F49073FB647B681B6850
:10430C000C33FA6C3A64FB63F96B3A6C41E80023AA
:10431C00BB63BB6B002BE5D17B681B6814333B6222
:10432C003B6A53E8003FFB61FB6923F00103BB646C
:10433C007B681B681433BA6CFA62BB62B96AFA6A9E
:10434C0041E800237B627B6A002BE5D17B681B6B09
:10435C00012B19D17B681B680C33FB60FB6853E89D
:10436C00003FBB60BB6823F010037B647B681B6859
:10437C000C337A6CBA617B617969BA6941E80023C4
:10438C003B613B69002BE5D17B68202283F84220FE
:10439C007B6800221A6300BF5437BD4680BC70474F
:1043AC0080B584B000AF78607B685B6AFB60FB68AB
:1043BC000022DA85FB680022DA84F868FFF70CFF2C
:1043CC0000BF1037BD4680BD80B485B000AF7860AB
:1043DC007B6893F84130DBB2212B3ED17B689B6824
:1043EC00B3F5805F14D17B681B69002B10D17B68FF
:1043FC001B6AFB60FB681B881A467B681B68C2F350
:10440C0008025A607B681B6A9A1C7B681A6208E077
:10441C007B681B6A591C7A6811621A787B681B6866
:10442C005A607B68DB8C9BB2013B9BB27A68194665
:10443C00D184002B0FD17B681B68DA687B681B6802
:10444C0022F08002DA607B681B68DA687B681B6884
:10445C0042F04002DA60002300E0022318461437D1
:10446C00BD4680BC704780B582B000AF78607B6879
:10447C001B68DA687B681B6822F04002DA607B6894
:10448C00202283F841207868FFF794FE0023184619
:10449C000837BD4680BD80B58CB000AF78607B68B6
:1044AC0093F84230DBB2222B40F0AE807B689B68E5
:1044BC00B3F5805F17D17B681B69002B13D10023E8
:1044CC00FB627B689B6ABB627B681B685B689BB208
:1044DC00C3F308039AB2BB6A1A807B689B6A9A1C66
:1044EC007B689A6226E07B689B6AFB620023BB6256
:1044FC007B689B68B3F5805F07D07B689B68002B5B
:10450C000AD17B681B69002B06D17B681B685B6832
:10451C00DAB2FB6A1A7008E07B681B685B68DBB276
:10452C0003F07F03DAB2FB6A1A707B689B6A5A1C31
:10453C007B689A627B68DB8D9BB2013B9BB27A688D
:10454C001946D185002B5DD17B681B68DA687B68C6
:10455C001B6822F02002DA607B681B68DA687B68D3
:10456C001B6822F48072DA607B681B685A697B686E
:10457C001B6822F001025A617B68202283F84220DA
:10458C007B6800225A637B681B6B012B35D17B68DF
:10459C0000221A637B681B680C337B617B6953E8D0
:1045AC00003F3B613B6923F010037B627B681B6817
:1045BC000C337A6A3A62FB61F9693A6A41E8002382
:1045CC00BB61BB69002BE5D17B681B681B6803F0E2
:1045DC001003102B0AD10023FB607B681B681B683F
:1045EC00FB607B681B685B68FB60FB687B689B8D72
:1045FC0019467868FFF7F9FD02E07868FFF7E3FDEC
:10460C00002302E0002300E0022318463037BD46A9
:10461C0080BD000080B584B000AF78607B681B68FB
:10462C001B6923F440517B68DA687B681B680A437A
:10463C001A617B689A687B681B691A437B685B69A3
:10464C001343BB607B681B68DB6823F4B05323F017
:10465C000C037A681268B9680B43D3607B681B68DB
:10466C005B6923F440717B689A697B681B680A4319
:10467C005A617B681B682C4A934203D1FEF738FAC7
:10468C00F86002E0FEF720FAF860FA6813469B0027
:10469C0013449A001A447B685B689B00B2FBF3F3EB
:1046AC00224AA2FB03235B091901FA6813469B00FB
:1046BC0013449A001A447B685B689B00B2FBF3F2CC
:1046CC001A4BA3FB02035B09642000FB03F3D31A10
:1046DC001B013233154AA2FB03235B0903F0F003E1
:1046EC001944FA6813469B0013449A001A447B68D9
:1046FC005B689B00B2FBF3F20C4BA3FB02035B0960
:10470C00642000FB03F3D31A1B013233074AA2FBCC
:10471C0003235B0903F00F027B681B680A449A6051
:10472C0000BF1037BD4680BD003801401F85EB51DE
:10473C00014B1868704700BF4C00002070B5002674
:10474C000C4D0D4C641BA410A64209D100F0F8FFCF
:10475C0000260A4D0A4C641BA410A64205D170BD5C
:10476C0055F8043B98470136EEE755F8043B98475B
:10477C000136F2E7D4590008D4590008D45900087E
:10478C00D859000803460244934200D1704703F8FD
:10479C00011BF9E70FB40A4B13B51C6824B1A369CC
:1047AC0013B9204600F05EFA05AB2046049AA168C6
:1047BC00019300F029FC02B0BDE8104004B0704732
:1047CC004C00002070B50E46054618B183690BB934
:1047DC0000F048FAAB69AC6813B9284600F042FA0D
:1047EC002C4B9C4220D16C68636EDB0705D4A389EB
:1047FC00980502D4A06D00F0D3FAA38919071DD532
:10480C002369DBB1013EA36816F8011F013BA360CD
:10481C0039BB002B38DA22460A21284600F048F82A
:10482C00013011D00A2511E01B4B9C4201D1AC6820
:10483C00DAE71A4B9C4208BFEC68D5E721462846BC
:10484C0000F088F80028DDD04FF0FF35636EDA07F2
:10485C0005D4A3899B0502D4A06D00F0A2FA2846CA
:10486C0070BD002B04DAA2699A4206DC0A2904D036
:10487C0023685A1C22601970C5E72246284600F0AE
:10488C0017F80130BFD1DFE70A2523685A1C2260D4
:10489C001D70DBE76059000880590008405900087A
:1048AC00024B01461868FFF78DBF00BF4C0000207B
:1048BC00F8B50E461446054618B183690BB900F0DD
:1048CC00D1F9214B9C422BD16C68A369A360A389BD
:1048DC001A072FD523696BB323692068F6B2C01A67
:1048EC0063693746834204DC2146284600F026F9EA
:1048FC0030BBA3680130013BA36023685A1C2260C3
:10490C001E706369834204D0A389DB0706D50A2E87
:10491C0004D12146284600F011F988B93846F8BD73
:10492C000A4B9C4201D1AC68CFE7094B9C4208BFB3
:10493C00EC68CAE72146284600F00CF80028CBD0DA
:10494C004FF0FF37EAE700BF6059000880590008B4
:10495C0040590008324B70B51D6806460C4625B10F
:10496C00AB6913B9284600F07DF92E4B9C420FD150
:10497C006C68A389B4F90C2019072CD4DD0611D46A
:10498C000923336042F040034FF0FF30A3813EE037
:10499C00254B9C4201D1AC68EBE7244B9C4208BFF1
:1049AC00EC68E6E7580712D5616B41B104F144039A
:1049BC00994202D0304600F059FA00236363A38970
:1049CC0023F02403A3810023636023692360A3895C
:1049DC0043F00803A38123694BB9A38903F4207323
:1049EC00B3F5007F03D02146304600F0FFF9A089D3
:1049FC00B4F90C2010F001030AD00023A360636902
:104A0C005B42A361236943B910F08000BAD170BD39
:104A1C00810758BF6369A360F4E70020F7E700BF84
:104A2C004C000020605900088059000840590008CB
:104A3C008A892DE9F041054610070C4658D44B687D
:104A4C00002B05DC0B6C002B02DC0020BDE8F08198
:104A5C00E66A002EF9D0002312F480522F682B60E6
:104A6C0032D0606DA3895A0705D56368C01A636B91
:104A7C000BB1236CC01A00230246E66A2846216A51
:104A8C00B047431CA38906D129681D292CD82A4A72
:104A9C00CA40D60728D5002262602269D904226058
:104AAC0004D5421C01D12B6803B96065616B2F6082
:104ABC000029CAD004F14403994202D0284600F0E0
:104ACC00D5F900206063C1E7216A01232846B0476D
:104ADC00411CC7D12B68002BC4D01D2B01D0162B29
:104AEC0001D12F60B1E7A38943F04003A381ADE767
:104AFC000F69002FA9D0930718BF00230E6808BFB9
:104B0C004B69A6EB07080F608B60B8F1000F9CDDBA
:104B1C0043463A462846216AA66AB047002806DC76
:104B2C00A3894FF0FF3043F04003A3818EE7074485
:104B3C00A8EB0008E9E700BF0100402038B50B697D
:104B4C0005460C4613B90025284638BD18B18369B3
:104B5C000BB900F087F8144B9C421BD16C68B4F96C
:104B6C000C30002BEFD0626ED00704D4990502D420
:104B7C00A06D00F015F928462146FFF759FF636E2A
:104B8C000546DA07E0D4A3899B05DDD4A06D00F0BF
:104B9C0008F9D9E7054B9C4201D1AC68DFE7044B1F
:104BAC009C4208BFEC68DAE760590008805900089D
:104BBC0040590008002310B50446C0E90033C0E991
:104BCC000433836081814366C28183611946082264
:104BDC005C30FFF7D7FD054B24626362044BA36284
:104BEC00044BE362044B236310BD00BFC1550008A6
:104BFC00E35500081B5600083F560008014900F019
:104C0C00AFB800BF494B000870B568254A1E554324
:104C1C000E4605F1740100F075F9044640B100210F
:104C2C00C0E900160C30A06005F16802FFF7AAFD80
:104C3C00204670BD014800F0B3B800BF0C02002044
:104C4C00014800F0AEB800BF0C020020014800F093
:104C5C00A7B800BF07020020014800F0A2B800BFAF
:104C6C000702002010B50446FFF7F0FFA3691BB143
:104C7C00BDE81040FFF7F0BFC4E912332365134BB6
:104C8C00134A1B68A262A34208BF0123204608BF37
:104C9C00A36100F01FF86060204600F01BF8A060D4
:104CAC00204600F017F800220421E0606068FFF74E
:104CBC0081FF01220921A068FFF77CFF022212214B
:104CCC00E068FFF777FF0123A361D1E73C590008A7
:104CDC00094C0008F8B50746FFF7ACFF1E4B1E68E1
:104CEC00B36913B93046FFF7BDFF4836D6E9013436
:104CFC00013B03D533680BB33668F7E7B4F90C50B6
:104D0C00D5B9164B04F15800E360656600F047F81E
:104D1C00FFF796FF08222946C4E90155C4E904555A
:104D2C002560A56104F15C00FFF72CFDC4E90D556D
:104D3C00C4E912552046F8BD6834D9E70421384639
:104D4C00FFF762FF044630600028D5D1FFF778FFEB
:104D5C000C233B60EEE700BF3C5900080100FFFF4D
:104D6C002DE9F84306468846002700F14804D4E9AB
:104D7C000195B9F1010905D52468002CF7D1384605
:104D8C00BDE8F883AB89012B07D9B5F90E30013397
:104D9C0003D029463046C04707436835E9E77047DA
:104DAC007047704770B50E46B1F90E1014460029C5
:104DBC001D4696B007DA00232B60B3891A0610D46F
:104DCC004FF480630EE06A4600F05AFC0028F2DBD8
:104DDC00019A02F47042A2F500535A425A412A60D9
:104DEC00EEE740230020236016B070BD8B8973B5AD
:104DFC009D0706460C4607D504F147032360236143
:104E0C000123636102B070BD6A4601ABFFF7CAFFB4
:104E1C0000990546304600F075F848B9B4F90C30E5
:104E2C009A05EFD423F0030343F00203A381E3E7D5
:104E3C000D4BB362A389206043F08003A381009BD8
:104E4C0020616361019B5BB13046B4F90E1000F038
:104E5C0029FC28B1A38923F0030343F00103A381A8
:104E6C00A0890543A581CDE7094C000838B5054656
:104E7C00002943D051F8043C0C1F002BB8BFE41898
:104E8C0000F040FC1E4A1368104633B9636014608E
:104E9C002846BDE8384000F03BBCA3420AD9216843
:104EAC006218934201BF1A685B68521822606360F3
:104EBC000460EDE71A465B680BB1A342FAD911689E
:104ECC005018A0420BD12068014450188342116045
:104EDC00DED118685B68014411605360D8E702D9D1
:104EEC000C232B60D4E7206821188B4201BF196872
:104EFC005B680918216063605460C9E738BD00BF66
:104F0C0020010020F8B5CD1C25F0030508350C2D2B
:104F1C0038BF0C25002D064601DBA94203D90C2312
:104F2C0033600020F8BD00F0EDFB21490A681446FF
:104F3C009CB9204F3B6823B92146304600F02AFB30
:104F4C0038602946304600F025FB431C23D10C2346
:104F5C003046336000F0DCFBE3E723685B1B17D4BF
:104F6C000B2B03D923601C44256004E06368A24228
:104F7C000CBF0B605360304600F0CAFB04F10B0011
:104F8C00231D20F00700C21ACCD01B1AA350C9E76E
:104F9C0022466468CCE7C41C24F00304A042E3D08E
:104FAC00211A304600F0F6FA0130DDD1CFE700BF10
:104FBC002001002024010020936810B4013B002B39
:104FCC00936007DA9469A34201DB0A2902D110BC71
:104FDC00FFF76EBC1368581C10601970084610BCA3
:104FEC007047F8B506460F461446D518AC4201D1A9
:104FFC00002007E03A46304614F8011BFFF7DCFFAF
:10500C00431CF3D1F8BD00002DE9F04F0D461446BA
:10501C00984606469DB018B183690BB9FFF722FE7E
:10502C00894B9D421BD175686B6ED90705D4AB8932
:10503C009A0502D4A86DFFF7B3FEAB891B0701D507
:10504C002B69EBB929463046FFF784FCC0B16B6E77
:10505C00DC070ED54FF0FF301DB0BDE8F08F7B4B59
:10506C009D4201D1B568DFE7794B9D4208BFF568D9
:10507C00DAE7AB899805EDD4A86DFFF792FEE9E766
:10508C000023099320238DF8293030234FF0010998
:10509C00CDF80C80DFF8BC818DF82A3023469A4677
:1050AC0013F8012B0AB1252AF9D1BAEB040B0BD05A
:1050BC005B46224629463046FFF793FF013000F04D
:1050CC00AA80099A5A4409929AF80030002B00F0F1
:1050DC00A28000234FF0FF32CDE905230AF1010A2B
:1050EC00049307938DF853301A935446052214F801
:1050FC00011B584800F0F8FA049AD8B9D10644BFFD
:10510C0020238DF85330130744BF2B238DF85330D5
:10511C009AF800302A2B15D0544600204FF00A0C78
:10512C00079A214611F8013B303B092B4ED9B0B1FF
:10513C00079214E0A0EB080309FA03F31343A24609
:10514C000493D2E7039B191D1B680391002BBBBF73
:10515C005B4242F0020207930793B8BF0492237894
:10516C002E2B0CD163782A2B35D1039B02341A1DBC
:10517C001B680392002BB8BF4FF0FF330593DFF889
:10518C00E4A003225046217800F0AEFA40B140234F
:10519C00A0EB0A0003FA00F0049B013403430493D0
:1051AC0014F8011B06222C488DF8281000F09CFAEC
:1051BC0000283FD0294B1BBB039B073323F007036D
:1051CC0008330393099B3B44099367E70C46012082
:1051DC000CFB0232A5E700234FF00A0C19460134F0
:1051EC000593204610F8012B303A092A03D9002BDD
:1051FC00C5D00591C3E7044601230CFB0121F0E760
:10520C0003AB00932A463046154B04A9AFF300803C
:10521C000746781CD6D16B6ED90705D4AB899A0595
:10522C0002D4A86DFFF7BDFDAB895B063FF512AF4D
:10523C00099811E703AB00932A463046084B04A9A2
:10524C0000F082F8E4E700BF6059000880590008BC
:10525C0040590008A0590008AA5900080000000095
:10526C00EF4F0008A65900082DE9F047164699465D
:10527C008A680B6907469342B8BF1346336091F8AE
:10528C0043200C46DDF820800AB1013333602368DB
:10529C00990642BF336802333360256815F0060562
:1052AC0006D104F1190AE36832689B1AAB4228DC78
:1052BC0094F84320131E226818BF012392062DD4A4
:1052CC004946384604F14302C047013020D02368D8
:1052DC00E56803F00603042B18BF002532684FF075
:1052EC000006A36808BFAD1A226908BF25EAE57558
:1052FC009342C4BF9B1AED181A34B5421AD1002040
:10530C0008E00123524649463846C047013003D1D4
:10531C004FF0FF30BDE8F0870135C4E73020E118CD
:10532C0081F843005A1C94F845102244023382F849
:10533C004310C5E70123224649463846C047013091
:10534C00E6D00136D9E700002DE9FF470C46277E51
:10535C009146782F80469A460C9904F1430207D85F
:10536C00622F0AD8002F00F0D980582F00F0A480AB
:10537C0004F1420684F842703AE0A7F16303152B5E
:10538C00F6D801A050F823F0ED53000801540008A2
:10539C007D5300087D5300087D5300087D530008A1
:1053AC00015400087D5300087D5300087D5300080C
:1053BC007D5300080F55000831540008F1540008C3
:1053CC007D5300087D530008315500087D530008BB
:1053DC00315400087D5300087D530008F95400082F
:1053EC000B6804F142061A1D1B680A6084F84230EF
:1053FC000123A4E0256808682E0600F104030AD5F1
:10540C0005680B60002D03DA2D236D4284F84330C0
:10541C000A235E4819E015F0400F05680B6018BFB1
:10542C002DB2EFE70B682568181D0860280601D51A
:10543C001D6802E06906FBD51D886F2F0CBF082381
:10544C000A235248002184F843106668002EA8BF36
:10545C002168A660A4BF21F0040121600DB9002EC3
:10546C004DD01646B5FBF3F103FB1157C75D06F89B
:10547C00017D2F46BB420D46F4D9082B0BD1236876
:10548C00DF0708D5236961689942DEBF302306F82F
:10549C00013C06F1FF36921B22614B4621464046E9
:1054AC00CDF800A003AAFFF7DFFE01304CD14FF07E
:1054BC00FF3004B0BDE8F087344884F845700E68BE
:1054CC00236856F8045B1F060E6014D5D90744BF39
:1054DC0043F0200323601DB9236823F020032360CD
:1054EC001023AFE7236843F0200323607823284878
:1054FC0084F84530E3E75E0648BFADB2E6E71646F2
:10550C00BBE70B6826681D1D60690D6035061B68BE
:10551C0001D5186002E07106FBD5188000231646F1
:10552C002361BAE70B681A1D0A601E680021304619
:10553C00626800F0D9F808B1801B60606368236171
:10554C00002384F84330A8E7324649464046236995
:10555C00D0470130ABD023689B0713D4E068039B82
:10556C009842B8BF1846A4E7012332464946404644
:10557C00D04701309BD00135E36803995B1AAB42ED
:10558C00F2DCEBE7002504F11906F5E7B159000848
:10559C00C259000838B50023054D044608462B6057
:1055AC00FCF792FA431C02D12B6803B1236038BD7F
:1055BC001002002010B50C46B1F90E1000F0AEF838
:1055CC000028ABBF636DA3891B1823F48053ACBFB9
:1055DC006365A38110BD2DE9F0411F468B890546FB
:1055EC00DB050C46164605D502230022B1F90E1038
:1055FC0000F068F8A389324623F48053A38128462F
:10560C003B46B4F90E10BDE8F04100F017B810B5E8
:10561C000C46B1F90E1000F055F8431CA38915BFC8
:10562C00606523F4805343F48053A38118BFA38196
:10563C0010BDB1F90E1000F013B8000038B50446D7
:10564C00084611460022054D2A601A46FCF7EFF970
:10565C00431C02D12B6803B1236038BD100200201B
:10566C0038B50023054D044608462B60FCF7FBF9C2
:10567C00431C02D12B6803B1236038BD10020020FB
:10568C0038B50023064D0446084611462B60FCF73E
:10569C00F5F9431C02D12B6803B1236038BD00BF60
:1056AC001002002038B50023054D044608462B6037
:1056BC00FCF7F3F9431C02D12B6803B1236038BD0E
:1056CC001002002038B50446084611460022054D4C
:1056DC002A601A46FCF7EBF9431C02D12B6803B184
:1056EC00236038BD10020020034610B5C9B2024435
:1056FC009342184601D1002003E0047801338C4218
:10570C00F6D110BD0148FFF74BBB00BF08020020CB
:10571C000148FFF746BB00BF0802002038B504461D
:10572C00084611460022054D2A601A46FCF762F91C
:10573C00431C02D12B6803B1236038BD100200203A
:10574C00F8B500BFF8BC08BC9E467047F8B500BF62
:08575C00F8BC08BC9E46704732
:105764004175746F206D6F64650D00005245442DC2
:10577400475245454E3A2025640D0A005245442DB2
:1057840059454C4C4F573A2025640D0A000000003F
:10579400427574746F6E2032205072657373656441
:1057A4003A204D616E75616C206D6F64650D00006B
:1057B400427574746F6E2033205072657373656420
:1057C4003A2054756E696E67206D6F64650D000034
:1057D400507265737320627574746F6E2031207417
:1057E4006F20696E6372656173652074696D6520ED
:1057F4006C656E6774680D00507265737320627512
:1058040074746F6E203220746F207365740D000001
:1058140054756E696E67207265640D004275747408
:105824006F6E203420507265737365643A2050653E
:10583400646573747269616E206D6F64650D000038
:10584400475245454E2D5245443A2025640D0A00E1
:1058540059454C4C4F572D5245443A2025640D0A66
:10586400000000005045444553206D6F64650D00F1
:105874005245442D475245454E3A2025640D0A00B1
:105884005245442D59454C4C4F573A2025640D0A36
:105894000000000054494D4520544F20474F3A2002
:1058A40025640D0A00000000475245454E2D52451F
:1058B400443A2025640D0A0059454C4C4F572D524B
:1058C40045443A2025640D0A0000000056616C75B9
:1058D4006520496E637265617365640D00000000A4
:1058E40056616C7565205365740D000054756E69BE
:1058F4006E672079656C6C6F770D000054756E6966
:105904006E6720677265656E0D0000000000000080
:10591400000000000102030406070809000000005B
:105924000102030402030405060708090A0B0C0D0F
:105934000E0F1010010200005000002000000000B3
:105944000000000000000000000000000000000053
:105954000000000000000000000000000000000043
:105964000000000000000000000000000000000033
:105974000000000000000000000000000000000023
:105984000000000000000000000000000000000013
:10599400000000000000000000000000232D302B58
:1059A4002000686C4C00656667454647003031321C
:1059B4003334353637383941424344454600303173
:1059C40032333435363738396162636465660000D2
:0459D4003101000895
:0459D8000D010008B5
:1059DC0001000000010000000100000001000000B7
:1059EC0001000000010000000100000001000000A7
:1059FC000100000001000000010000000100000097
:105A0C000100000001000000010000000100000086
:105A1C000024F400100000000100000050000020E1
:105A2C000000000060590008805900084059000827
:105A3C00000000000000000000000000000000005A
:105A4C00000000000000000000000000000000004A
:105A5C00000000000000000000000000000000003A
:105A6C00000000000000000000000000000000002A
:105A7C00000000000000000000000000000000001A
:0400000508001B4D87
:00000001FF
