:020000040800F2
:1000000000500020F9100008751000087B1000084F
:1000100081100008871000088D1000080000000003
:100020000000000000000000000000009310000825
:100030009F10000800000000AB100008B710000877
:100040004111000841110008411100084111000848
:100050004111000841110008411100084111000838
:100060004111000841110008411100084111000828
:100070004111000841110008411100084111000818
:100080004111000841110008411100084111000808
:1000900041110008411100084111000841110008F8
:1000A00041110008411100084111000841110008E8
:1000B000C5100008D91000084111000841110008BE
:1000C00041110008411100084111000841110008C8
:1000D00041110008411100084111000841110008B8
:1000E0004111000841110008411100080000000002
:1000F0000000000000000000000000000000000000
:0C01000000000000000000005FF808F1A3
:10010C0010B5054C237833B9044B13B10448AFF345
:10011C0000800123237010BD4C0000200000000063
:10012C00DC2C000808B5034B1BB103490348AFF3A3
:10013C00008008BD0000000050000020DC2C0008EE
:10014C0080B400AF064B1B68012B04D1044B00227A
:10015C001A60012300E000231846BD4680BC70479E
:10016C006C00002080B400AF064B1B68012B04D13F
:10017C00044B00221A60012300E000231846BD4600
:10018C0080BC70477000002080B400AF064B1B6829
:10019C00012B04D1044B00221A60012300E0002340
:1001AC001846BD4680BC70477400002080B400AF78
:1001BC00064B1B68012B04D1044B00221A6001234F
:1001CC0000E000231846BD4680BC70477800002034
:1001DC0080B500AF034B01221A6000F0D9F900BFC3
:1001EC0080BD00BF6C00002080B500AF034B012226
:1001FC001A6000F0CDF900BF80BD00BF7000002078
:10020C0080B500AF034B01221A6000F0C1F900BFAA
:10021C0080BD00BF7400002080B500AF034B0122ED
:10022C001A6000F0B5F900BF80BD00BF7800002057
:10023C0080B500AF224B1B68224A1360224B1B680F
:10024C001F4A13600221214801F06AFA03461A463C
:10025C001D4B1A601A4B1A681B4B1B689A422DD106
:10026C00174B1A68174B1B689A4227D1154B1A6803
:10027C00174B1B689A4212D0124B1B68144A13601E
:10028C00114B1B68002B06D1124B4FF4FA721A60FB
:10029C00FFF79EFF12E00F4B00221A600EE00D4B91
:1002AC001B68013B0B4A13600A4B1B68002B05D1E2
:1002BC00084B4FF4FA721A60FFF78AFF00BF80BD3B
:1002CC001000002020000020000000200008014049
:1002DC00300000206800002080B500AF224B5B6826
:1002EC00224A5360224B5B681F4A536010212148FD
:1002FC0001F016FA03461A461D4B5A601A4B5A68FF
:10030C001B4B5B689A422DD1174B5A68174B5B6895
:10031C009A4227D1154B5A68174B5B689A4212D0F8
:10032C00124B5B68144A5360114B5B68002B06D16F
:10033C00124B4FF4FA721A60FFF756FF12E00F4B94
:10034C0000221A600EE00D4B1B68013B0B4A136038
:10035C000A4B1B68002B05D1084B4FF4FA721A603C
:10036C00FFF742FF00BF80BD1000002020000020DE
:10037C000000002000080140300000206800002030
:10038C0080B500AF224B9B68224A9360224B9B683E
:10039C001F4A93600121214801F0C2F903461A4615
:1003AC001D4B9A601A4B9A681B4B9B689A422DD135
:1003BC00174B9A68174B9B689A4227D1154B9A6832
:1003CC00174B9B689A4212D0124B9B68144A93604D
:1003DC00114B9B68002B06D1124B4FF4FA721A602A
:1003EC00FFF70EFF12E00F4B00221A600EE00D4BD0
:1003FC001B68013B0B4A13600A4B1B68002B05D191
:10040C00084B4FF4FA721A60FFF7FAFE00BF80BD7A
:10041C00100000202000002000000020000C0140F3
:10042C00300000206800002080B500AF224BDB6854
:10043C00224AD360224BDB681F4AD360012121483A
:10044C0001F06EF903461A461D4BDA601A4BDA6856
:10045C001B4BDB689A422DD1174BDA68174BDB68C4
:10046C009A4227D1154BDA68174BDB689A4212D0A7
:10047C00124BDB68144AD360114BDB68002B06D19E
:10048C00124B4FF4FA721A60FFF7C6FE12E00F4BD4
:10049C0000221A600EE00D4B1B68013B0B4A1360E7
:1004AC000A4B1B68002B05D1084B4FF4FA721A60EB
:1004BC00FFF7B2FE00BF80BD10000020200000201E
:1004CC0000000020000801403000002068000020DF
:1004DC0080B582B000AF78607B68013B0A2B52D8A4
:1004EC0001A252F823F000BF210500089305000873
:1004FC009305000827050008930500083905000836
:10050C00430500085505000893050008630500081D
:10051C007905000800F03CF836E000F06FF800F0C8
:10052C0091F800F0CBF800F0BDF82DE000F066F883
:10053C0000F070F828E000F079F800F06BF800F0AB
:10054C00A5F800F0C7F81FE000F058F800F06EF8BE
:10055C0000F060F818E000F051F800F05BF800F0E3
:10056C0065F800F06FF800F079F80DE000F046F84F
:10057C0000F050F800F0A2F800F0ACF800F0B6F87B
:10058C0000F078F800E000BF00BF0837BD4680BD22
:10059C0080B500AF00F07AF800F084F800F08EF827
:1005AC0000F098F800F0A2F800F0ACF800BF80BDA5
:1005BC0080B582B000AF78607B68102B15D07B685B
:1005CC00102B17DC7B680E2B03D07B680F2B05D010
:1005DC0010E000F013F800F035F80BE000F00EF826
:1005EC0000F018F800F02EF804E000F01FF800F00E
:1005FC0011F800BF00BF0837BD4680BD80B500AF05
:10060C0001224FF48061024801F0A1F800BF80BDC7
:10061C000008014080B500AF01222021024801F002
:10062C0096F800BF80BD00BF000C014080B500AF44
:10063C0001220821024801F08AF800BF80BD00BFEA
:10064C00000C014080B500AF01221021024801F0DE
:10065C007EF800BF80BD00BF000C014080B500AF2C
:10066C0001224FF48061024801F071F800BF80BD97
:10067C00000C014080B500AF01224FF4807102489C
:10068C0001F065F800BF80BD0008014080B500AFE7
:10069C0000224FF48061024801F059F800BF80BD80
:1006AC000008014080B500AF00222021024801F073
:1006BC004EF800BF80BD00BF000C014080B500AFFC
:1006CC0000220821024801F042F800BF80BD00BFA3
:1006DC00000C014080B500AF00221021024801F04F
:1006EC0036F800BF80BD00BF000C014080B500AFE4
:1006FC0000224FF48061024801F029F800BF80BD50
:10070C00000C014080B500AF00224FF4807102480C
:10071C0001F01DF800BF80BD0008014080B500AF9E
:10072C006A4B1B68013B072B00F2C28001A252F8F6
:10073C0023F000BF61070008BD080008BD080008D1
:10074C0085070008BD080008D30700082108000829
:10075C006F0800085E4B1B68012B40F0AB805B4BB5
:10076C0004221A605B4B1B680333642202FB03F305
:10077C00184600F061FB9DE0554B1B68012B0BD11B
:10078C00524B06221A60544B1B680233642202FB44
:10079C0003F3184600F050FBFFF7E4FC0346012B73
:1007AC0005D14A4B0E221A60322000F045FBFFF7B0
:1007BC00FDFC0346012B7FD1444B0A221A60C82052
:1007CC0000F03AFB78E0424B1B68012B0BD13F4BFE
:1007DC0007221A603F4B1B680333642202FB03F3AE
:1007EC00184600F029FBFFF7BDFC0346012B05D191
:1007FC00364B0E221A60322000F01EFBFFF7D6FC9F
:10080C000346012B5AD1314B0A221A60C82000F042
:10081C0013FB53E02E4B1B68012B0BD12B4B0822E7
:10082C001A602D4B1B680233642202FB03F318463B
:10083C0000F002FBFFF796FC0346012B05D1234B7E
:10084C000E221A60322000F0F7FAFFF7AFFC0346D5
:10085C00012B35D11D4B0A221A60C82000F0ECFA8E
:10086C002EE01B4B1B68012B0BD1184B04221A607A
:10087C00184B1B680333642202FB03F3184600F089
:10088C00DBFAFFF76FFC0346012B05D10F4B0E2251
:10089C001A60322000F0D0FAFFF788FC0346012BD7
:1008AC0010D10A4B0A221A60C82000F0C5FA09E0E0
:1008BC0000BF08E000BF06E000BF04E000BF02E09C
:1008CC0000BF00E000BF00BF80BD00BF7C00002067
:1008DC0094000020840000208800002080B500AF28
:1008EC005D4B1B68102B75D0102B00F3AB800E2BBF
:1008FC0002D00F2B36D0A5E0FFF722FC0346012BCC
:10090C0005D1564B00221A60534B01221A60FFF797
:10091C0029FC0346012B13D1514B1A684F4B1B6812
:10092C0013444F4A13604D4B00221A604C4B1A680B
:10093C004C4B1B68D31A4C4A1360474B0F221A605E
:10094C00FFF722FC0346012B7ED1454B1A68434B23
:10095C001B6813445D2B77DC404B1B6801333F4A0B
:10096C00136071E0FFF7ECFB0346012B05D13B4B09
:10097C0000221A60384B01221A60FFF7F3FB034682
:10098C00012B15D1374B1A68344B1B681344354A6D
:10099C001360344B1B685A1D334B1B681344053BC7
:1009AC002F4A13602D4B00221A602B4B10221A6019
:1009BC00FFF7EAFB0346012B48D12A4B1A68274B59
:1009CC001B681344602B41DC244B1B680133234A06
:1009DC0013603BE0FFF7B4FB0346012B05D11F4B23
:1009EC0000221A601C4B01221A60FFF7BBFB034666
:1009FC00012B15D11C4B1A68184B1B6813441A4A4F
:100A0C001360184B1B685A1D174B1B681344053B8E
:100A1C00134A1360114B00221A600F4B0E221A60FE
:100A2C00FFF7B2FB0346012B12D10F4B1A680B4B8D
:100A3C001B6813445F2B0BDC084B1B680133074A04
:100A4C00136005E000BF04E000BF02E000BF00E05F
:100A5C0000BF00BF80BD00BF7C0000208C000020C8
:100A6C0080000020880000208400002080B500AFAA
:100A7C00114B1B680A2B02D00B2B0CD019E00F4B1F
:100A8C001B68012B12D10C4B0B221A604FF4FA701D
:100A9C0000F0D2F90AE0094B1B68012B08D1064B78
:100AAC0001221A60012000F0C7F901E000BF00E04C
:100ABC0000BF00BF80BD00BF7C0000209400002060
:100ACC0080B500AF00F038FB00F020F800F022F900
:100ADC0000F05EF800F0A8F8094801F07DFA09482A
:100AEC0001F07AFA084B01221A60012000F0A4F9F7
:100AFC00FFF714FEFFF7F2FEFFF7B8FFF8E700BFB1
:100B0C00F0000020A80000207C00002080B590B0F0
:100B1C0000AF07F1180328220021184602F0D0F884
:100B2C003B1D00221A605A609A60DA601A61022337
:100B3C00BB610123BB621023FB6202237B63002396
:100B4C00BB634FF46013FB6307F11803184600F006
:100B5C0017FE0346002B01D000F068F90F237B60D1
:100B6C000223BB600023FB604FF480633B610023D6
:100B7C007B613B1D0221184601F082F80346002BD5
:100B8C0001D000F053F900BF4037BD4680BD0000D6
:100B9C0080B586B000AF07F1080300221A605A60D6
:100BAC009A60DA603B4600221A605A601D4B4FF087
:100BBC0080421A601B4B4FF6FF125A60194B0022F1
:100BCC009A60184B0922DA60164B00221A61154BF9
:100BDC0000229A61134801F0AFF90346002B01D0B3
:100BEC0000F024F94FF48053BB6007F10803194659
:100BFC000C4801F065FC0346002B01D000F016F9FF
:100C0C0000233B6000237B603B461946054801F0FE
:100C1C00C3FF0346002B01D000F008F900BF1837C2
:100C2C00BD4680BDF000002080B58EB000AF07F14E
:100C3C00280300221A605A609A60DA6007F12003D8
:100C4C0000221A605A603B1D00221A605A609A609A
:100C5C00DA601A615A619A612C4B2D4A1A602B4B3F
:100C6C004FF6FF125A60294B00229A60274B09223B
:100C7C00DA60264B00221A61244B00229A61234829
:100C8C0001F05AF90346002B01D000F0CFF84FF4D5
:100C9C008053BB6207F1280319461C4801F010FC75
:100CAC000346002B01D000F0C1F8184801F0E6F91A
:100CBC000346002B01D000F0B9F800233B6200235F
:100CCC007B6207F120031946104801F065FF0346CB
:100CDC00002B01D000F0AAF860237B600023BB60DE
:100CEC000023FB6000237B613B1D00221946074853
:100CFC0001F024FB0346002B01D000F097F80348C9
:100D0C0000F06CF900BF3837BD4680BDA80000204C
:100D1C000004004080B588B000AF07F1100300223A
:100D2C001A605A609A60DA60344B9B69334A43F01C
:100D3C0004039361314B9B6903F00403FB60FB6874
:100D4C002E4B9B692D4A43F0080393612B4B9B69F7
:100D5C0003F00803BB60BB68284B9B69274A43F030
:100D6C0010039361254B9B6903F010037B607B6838
:100D7C0000224FF4A861224800F0E9FC00224FF455
:100D8C008761204800F0E3FC13233B6100237B6167
:100D9C000123BB6107F110031946194800F03CFB15
:100DAC004FF4A8633B6101237B610023BB610223E9
:100DBC00FB6107F110031946114800F02DFB0123CC
:100DCC003B6100237B610123BB6107F110031946D2
:100DDC000C4800F021FB4FF487633B6101237B61DE
:100DEC000023BB610223FB6107F110031946054880
:100DFC0000F012FB00BF2037BD4680BD0010024042
:100E0C0000080140000C014080B582B000AF786052
:100E1C0000F026F8FFF70CFAFFF75EFAFFF7B0FACE
:100E2C00FFF702FB00BF0837BD4680BD80B400AFA2
:100E3C0072B600BFFEE7000080B483B000AF7860EC
:100E4C00054A7B681360054B00221A6000BF0C3703
:100E5C00BD4680BC704700BF90000020940000206D
:100E6C0080B500AF1D4B1B681846FFF731FB1B4BC1
:100E7C001B681846FFF79CFB194B1B68002B0BDDFE
:100E8C00174B1B68013B164A1360154B1B68002B54
:100E9C0002DC144B01221A60134B1B68002B0BDD78
:100EAC00114B1B68013B104A13600F4B1B68002B46
:100EBC0002DC0E4B01221A600D4B1B68002B0BDD64
:100ECC000B4B1B68013B0A4A1360094B1B68002B38
:100EDC0002DC084B01221A6000BF80BD7C000020A0
:100EEC009000002094000020980000209C0000201E
:100EFC00A0000020A400002080B485B000AF154BEA
:100F0C009B69144A43F001039361124B9B6903F0F4
:100F1C000103BB60BB680F4BDB690E4A43F0805387
:100F2C00D3610C4BDB6903F080537B607B680A4B0D
:100F3C005B68FB60FB6823F0E063FB60FB6843F0DD
:100F4C000073FB60044AFB68536000BF1437BD4656
:100F5C0080BC7047001002400000014080B584B096
:100F6C0000AF78607B681B68B3F1804F14D1194BCC
:100F7C00DB69184A43F00103D361164BDB6903F0BC
:100F8C000103FB60FB68002200211C2000F00DFA1D
:100F9C001C2000F026FA18E07B681B680E4A93426E
:100FAC0013D10C4BDB690B4A43F00203D361094BA1
:100FBC00DB6903F00203BB60BB68002200211D202B
:100FCC0000F0F3F91D2000F00CFA00BF1037BD46FD
:100FDC0080BD00BF001002400004004080B588B006
:100FEC0000AF786007F10C0300221A605A609A6017
:100FFC00DA607B681B68184A934229D1174B9B69AE
:10100C00164A43F010039361144B9B6903F01003D1
:10101C00BB60BB684023FB6002233B610223BB61C6
:10102C0007F10C0319460E4800F0F6F90D4B5B68FE
:10103C00FB61FB6923F44063FB61FB6943F0E063F4
:10104C00FB61FB6943F44063FB61064AFB69536037
:10105C0000BF2037BD4680BD000400400010024098
:10106C00001001400000014080B400AFFEE780B4E6
:10107C0000AFFEE780B400AFFEE780B400AFFEE740
:10108C0080B400AFFEE780B400AF00BFBD4680BCAB
:10109C00704780B400AF00BFBD4680BC704780B4C1
:1010AC0000AF00BFBD4680BC704780B500AF00F0FC
:1010BC0089F800BF80BD000080B500AF024801F088
:1010CC0035F800BF80BD00BFF000002080B500AF38
:1010DC00024801F02BF800BF80BD00BFA800002023
:1010EC0080B400AF00BFBD4680BC7047FFF7F8FF6F
:1010FC000B480C490C4A002302E0D458C45004336A
:10110C00C4188C42F9D3094A094C002301E013603E
:10111C000432A242FBD301F0AFFDFFF7D1FC7047C4
:10112C00000000204C000020202D00084C00002066
:10113C003C010020FEE7000080B500AF084B1B68A7
:10114C00074A43F010031360032000F023F90F202B
:10115C0000F008F8FFF7D0FE0023184680BD00BF52
:10116C000020024080B582B000AF7860124B1A6844
:10117C00124B1B7819464FF47A73B3FBF1F3B2FBA5
:10118C00F3F3184600F03BF90346002B01D0012382
:10119C000EE07B680F2B0AD8002279684FF0FF30E5
:1011AC0000F003F9064A7B681360002300E001237A
:1011BC0018460837BD4680BD40000020480000207E
:1011CC004400002080B400AF054B1B781A46054B39
:1011DC001B681344034A136000BFBD4680BC7047B4
:1011EC00480000203801002080B400AF024B1B687F
:1011FC001846BD4680BC70473801002080B485B0CD
:10120C0000AF78607B6803F00703FB600C4BDB6876
:10121C00BB60BA684FF6FF031340BB60FB681A0251
:10122C00BB68134343F0BF6343F40033BB60044A11
:10123C00BB68D36000BF1437BD4680BC704700BF8D
:10124C0000ED00E080B400AF044BDB681B0A03F038
:10125C0007031846BD4680BC704700BF00ED00E098
:10126C0080B483B000AF0346FB7197F90730002BB5
:10127C000BDBFB7903F01F02064997F907305B097A
:10128C00012000FA02F241F8232000BF0C37BD46C2
:10129C0080BC704700E100E080B483B000AF03462F
:1012AC003960FB7197F90730002B0ADB3B68DAB227
:1012BC000C4997F907301201D2B20B4483F8002382
:1012CC000AE03B68DAB20849FB7903F00F03043BF0
:1012DC001201D2B20B441A7600BF0C37BD4680BC4B
:1012EC00704700BF00E100E000ED00E080B489B081
:1012FC0000AFF860B9607A60FB6803F00703FB612C
:10130C00FB69C3F10703042B28BF0423BB61FB69F2
:10131C000433062B02D9FB69033B00E000237B61FD
:10132C004FF0FF32BB6902FA03F3DA43BB681A4091
:10133C007B699A404FF0FF317B6901FA03F3D94383
:10134C007B680B40134318462437BD4680BC70475E
:10135C0080B582B000AF78607B68013BB3F1807FD1
:10136C0001D301230FE00A4A7B68013B53600F2134
:10137C004FF0FF30FFF790FF054B00229A60044BB3
:10138C0007221A60002318460837BD4680BD00BFEF
:10139C0010E000E080B582B000AF78607868FFF7AD
:1013AC002DFF00BF0837BD4680BD80B586B000AFAD
:1013BC000346B9607A60FB7300237B61FFF742FF41
:1013CC0078617A68B9687869FFF790FF024697F9F7
:1013DC000F3011461846FFF75FFF00BF1837BD46A8
:1013EC0080BD80B582B000AF0346FB7197F9073022
:1013FC001846FFF735FF00BF0837BD4680BD80B5E6
:10140C0082B000AF78607868FFF7A2FF03461846F9
:10141C000837BD4680BD000080B48BB000AF78604B
:10142C00396000237B6200233B6269E101227B6A05
:10143C0002FA03F3FB613B681B68FA691340BB615A
:10144C00BA69FB699A4240F058813B685B689A4ADA
:10145C0093425ED0984A934275D8984A934258D09A
:10146C00964A93426FD8964A934252D0944A9342EA
:10147C0069D8944A93424CD0924A934263D8924A88
:10148C00934246D0904A93425DD8122B2AD8122B05
:10149C0059D801A252F823F01F150008F9140008BE
:1014AC000B1500084D1500085315000853150008BE
:1014BC005315000853150008531500085315000860
:1014CC005315000853150008531500085315000850
:1014DC005315000853150008531500080115000892
:1014EC0015150008794A934213D02CE03B68DB6851
:1014FC003B6229E03B68DB6804333B6224E03B68D9
:10150C00DB6808333B621FE03B68DB680C333B62F3
:10151C001AE03B689B68002B02D104233B6213E06A
:10152C003B689B68012B05D108233B627B68FA69F9
:10153C001A6109E008233B627B68FA695A6103E08F
:10154C0000233B6200E000BFBB69FF2B01D87B6826
:10155C0001E07B6804337B61BB69FF2B02D87B6A9B
:10156C009B0002E07B6A083B9B003B617B691A682D
:10157C000F213B6901FA03F3DB431A40396A3B69DB
:10158C0001FA03F31A437B691A603B685B6803F04A
:10159C008053002B00F0B1804D4B9B694C4A43F0BB
:1015AC00010393614A4B9B6903F00103BB60BB6869
:1015BC00484A7B6A9B08023352F82330FB607B6AF3
:1015CC0003F003039B000F2202FA03F3DB43FA68D8
:1015DC001340FB607B68404A934213D07B683F4AC0
:1015EC0093420DD07B683E4A934207D07B683D4ABC
:1015FC00934201D1032306E0042304E0022302E01A
:10160C00012300E000237A6A02F003029200934067
:10161C00FA681343FB602F497B6A9B080233FA6814
:10162C0041F823203B685B6803F48013002B06D041
:10163C002D4B9A682C49BB6913438B6006E02A4BEF
:10164C009A68BB69DB43284913408B603B685B6835
:10165C0003F40013002B06D0234BDA682249BB6934
:10166C001343CB6006E0204BDA68BB69DB431E49B1
:10167C001340CB603B685B6803F40033002B06D04F
:10168C00194B5A681849BB6913434B6006E0164B5B
:10169C005A68BB69DB43144913404B603B685B6879
:1016AC0003F48033002B21D00F4B1A680E49BB6911
:1016BC0013430B6021E000BF00003210000031101A
:1016CC000000221000002110000012100000111068
:1016DC00001002400000014000080140000C0140D5
:1016EC000010014000140140000401400B4B1A682B
:1016FC00BB69DB43094913400B607B6A01337B6296
:10170C003B681A687B6A22FA03F3002B7FF48EAED7
:10171C0000BF00BF2C37BD4680BC704700040140A1
:10172C0080B485B000AF78600B467B807B689A688C
:10173C007B881340002B02D00123FB7301E00023B4
:10174C00FB73FB7B18461437BD4680BC704780B4D6
:10175C0083B000AF78600B467B8013467B707B7840
:10176C00002B03D07A887B681A6103E07B881A040B
:10177C007B681A6100BF0C37BD4680BC7047000007
:10178C0080B586B000AF78607B68002B01D1012357
:10179C006CE27B681B6803F00103002B00F0878070
:1017AC00924B5B6803F00C03042B0CD08F4B5B68E3
:1017BC0003F00C03082B12D18C4B5B6803F48033C1
:1017CC00B3F5803F0BD1894B1B6803F40033002B1E
:1017DC006CD07B685B68002B68D1012346E27B6888
:1017EC005B68B3F5803F06D1804B1B687F4A43F49E
:1017FC00803313602EE07B685B68002B0CD17B4B35
:10180C001B687A4A23F480331360784B1B68774A41
:10181C0023F4802313601DE07B685B68B3F5A02F75
:10182C000CD1724B1B68714A43F4802313606F4BCD
:10183C001B686E4A43F4803313600BE06B4B1B68E0
:10184C006A4A23F480331360684B1B68674A23F49D
:10185C00802313607B685B68002B13D0FFF7C4FCFC
:10186C00386108E0FFF7C0FC02463B69D31A642BD1
:10187C0001D90323FAE15D4B1B6803F40033002B01
:10188C00F0D014E0FFF7B0FC386108E0FFF7ACFCD7
:10189C0002463B69D31A642B01D90323E6E1534B6F
:1018AC001B6803F40033002BF0D100E000BF7B6811
:1018BC001B6803F00203002B63D04C4B5B6803F0F6
:1018CC000C03002B0BD0494B5B6803F00C03082B6B
:1018DC001CD1464B5B6803F48033002B16D1434B71
:1018EC001B6803F00203002B05D07B681B69012BDE
:1018FC0001D00123BAE13D4B1B6823F0F8027B6851
:10190C005B69DB00394913430B603AE07B681B6968
:10191C00002B20D0364B01221A60FFF765FC386192
:10192C0008E0FFF761FC02463B69D31A022B01D990
:10193C0003239BE12D4B1B6803F00203002BF0D01B
:10194C002A4B1B6823F0F8027B685B69DB00274994
:10195C0013430B6015E0264B00221A60FFF744FC82
:10196C00386108E0FFF740FC02463B69D31A022BB2
:10197C0001D903237AE11D4B1B6803F00203002BF2
:10198C00F0D17B681B6803F00803002B3AD07B680E
:10199C009B69002B19D0174B01221A60FFF724FC0E
:1019AC00386108E0FFF720FC02463B69D31A022B92
:1019BC0001D903235AE10D4B5B6A03F00203002BA0
:1019CC00F0D0012000F09AFA1CE00A4B00221A60B9
:1019DC00FFF70AFC38610FE0FFF706FC02463B6993
:1019EC00D31A022B08D9032340E100BF0010024098
:1019FC0000004242800442429E4B5B6A03F00203A9
:101A0C00002BE9D17B681B6803F00403002B00F06A
:101A1C00A6800023FB75974BDB6903F08053002BEA
:101A2C000DD1944BDB69934A43F08053D361914BB6
:101A3C00DB6903F08053BB60BB680123FB758E4BE5
:101A4C001B6803F48073002B18D18B4B1B688A4ADC
:101A5C0043F480731360FFF7C7FB386108E0FFF7AE
:101A6C00C3FB02463B69D31A642B01D90323FDE067
:101A7C00814B1B6803F48073002BF0D07B68DB6810
:101A8C00012B06D17B4B1B6A7A4A43F0010313628C
:101A9C002DE07B68DB68002B0CD1764B1B6A754AFA
:101AAC0023F001031362734B1B6A724A23F0040385
:101ABC0013621CE07B68DB68052B0CD16D4B1B6A39
:101ACC006C4A43F0040313626A4B1B6A694A43F085
:101ADC00010313620BE0674B1B6A664A23F0010398
:101AEC001362644B1B6A634A23F0040313627B6822
:101AFC00DB68002B15D0FFF777FB38610AE0FFF7A6
:101B0C0073FB02463B69D31A41F28832934201D9E6
:101B1C000323ABE0574B1B6A03F00203002BEED000
:101B2C0014E0FFF761FB38610AE0FFF75DFB02464A
:101B3C003B69D31A41F28832934201D9032395E0D1
:101B4C004C4B1B6A03F00203002BEED1FB7D012BE7
:101B5C0005D1484BDB69474A23F08053D3617B683E
:101B6C00DB69002B00F08180424B5B6803F00C03B7
:101B7C00082B61D07B68DB69022B46D13F4B0022DE
:101B8C001A60FFF731FB386108E0FFF72DFB0246C6
:101B9C003B69D31A022B01D9032367E0354B1B6831
:101BAC0003F00073002BF0D17B681B6AB3F5803F08
:101BBC0008D1304B5B6823F400327B689B682D495D
:101BCC0013434B602B4B5B6823F474127B68196ACC
:101BDC007B685B6A0B43274913434B60274B0122FD
:101BEC001A60FFF701FB386108E0FFF7FDFA0246C7
:101BFC003B69D31A022B01D9032337E01D4B1B6819
:101C0C0003F00073002BF0D02FE01C4B00221A6065
:101C1C00FFF7EAFA386108E0FFF7E6FA02463B699B
:101C2C00D31A022B01D9032320E0124B1B6803F0BB
:101C3C000073002BF0D118E07B68DB69012B01D11C
:101C4C00012313E00B4B5B68FB60FB6803F48032F1
:101C5C007B681B6A9A4206D1FB6803F470127B689E
:101C6C005B6A9A4201D0012300E000231846183722
:101C7C00BD4680BD00100240007000406000424232
:101C8C0080B584B000AF786039607B68002B01D1DF
:101C9C000123D0E06A4B1B6803F007033A689A42B1
:101CAC0010D9674B1B6823F0070265493B68134347
:101CBC000B60634B1B6803F007033A689A4201D030
:101CCC000123B8E07B681B6803F00203002B20D0D3
:101CDC007B681B6803F00403002B05D0594B5B6831
:101CEC00584A43F4E06353607B681B6803F00803B5
:101CFC00002B05D0534B5B68524A43F4605353603E
:101D0C00504B5B6823F0F0027B689B684D49134392
:101D1C004B607B681B6803F00103002B40D07B6891
:101D2C005B68012B07D1474B1B6803F40033002B76
:101D3C0015D101237FE07B685B68022B07D1414BF7
:101D4C001B6803F00073002B09D1012373E03D4B9A
:101D5C001B6803F00203002B01D101236BE0394B0C
:101D6C005B6823F003027B685B68364913434B6066
:101D7C00FFF73AFAF8600AE0FFF736FA0246FB681A
:101D8C00D31A41F28832934201D9032353E02D4BED
:101D9C005B6803F00C027B685B689B009A42EBD19A
:101DAC00274B1B6803F007033A689A4210D2244B66
:101DBC001B6823F0070222493B6813430B60204B3E
:101DCC001B6803F007033A689A4201D0012332E002
:101DDC007B681B6803F00403002B08D0194B5B686D
:101DEC0023F4E0627B68DB68164913434B607B6825
:101DFC001B6803F00803002B09D0124B5B6823F41B
:101E0C0060527B681B69DB000E4913434B6000F08A
:101E1C0021F802460B4B5B681B0903F00F030A49C0
:101E2C00CB5C22FA03F3094A1360094B1B68184672
:101E3C00FFF798F9002318461037BD4680BD00BF48
:101E4C000020024000100240F42C0008400000204A
:101E5C004400002080B487B000AF0023FB60002357
:101E6C00BB6000237B6100237B6000233B611E4B26
:101E7C005B68FB60FB6803F00C03042B02D0082B9F
:101E8C0003D027E0194B3B6127E0FB689B0C03F068
:101E9C000F03174AD35C7B60FB6803F48033002B81
:101EAC0010D0114B5B685B0C03F00103114AD35C3F
:101EBC00BB607B680D4A02FB03F2BB68B2FBF3F319
:101ECC007B6104E07B680C4A02FB03F37B617B695A
:101EDC003B6102E0054B3B6100BF3B6918461C3778
:101EEC00BD4680BC704700BF0010024000127A0053
:101EFC00042D0008142D000800093D0080B485B0A5
:101F0C0000AF78600A4B1B680A4AA2FB03235B0AEA
:101F1C007A6802FB03F3FB6000BFFB685A1EFA6091
:101F2C00002BF9D100BF00BF1437BD4680BC7047F1
:101F3C0040000020D34D621080B582B000AF7860B5
:101F4C007B68002B01D1012341E07B6893F83D3085
:101F5C00DBB2002B06D17B68002283F83C2078682A
:101F6C00FEF7FCFF7B68022283F83D207B681A6831
:101F7C007B6804331946104600F08EFB7B68012207
:101F8C0083F846207B68012283F83E207B6801227F
:101F9C0083F83F207B68012283F840207B68012274
:101FAC0083F841207B68012283F842207B68012260
:101FBC0083F843207B68012283F844207B6801224C
:101FCC0083F845207B68012283F83D2000231846C6
:101FDC000837BD4680BD000080B485B000AF786086
:101FEC007B6893F83D30DBB2012B01D001233AE042
:101FFC007B68022283F83D207B681B68DA687B686B
:10200C001B6842F00102DA607B681B68184A934235
:10201C000ED07B681B68B3F1804F09D07B681B68BE
:10202C00144A934204D07B681B68134A934211D123
:10203C007B681B689B6803F00703FB60FB68062B3F
:10204C0010D07B681B681A687B681B6842F0010221
:10205C001A6007E07B681B681A687B681B6842F093
:10206C0001021A60002318461437BD4680BC704725
:10207C00002C0140000400400008004080B582B0F4
:10208C0000AF78607B68002B01D1012341E07B68B5
:10209C0093F83D30DBB2002B06D17B68002283F82D
:1020AC003C20786800F039F87B68022283F83D20E8
:1020BC007B681A687B6804331946104600F0ECFA0A
:1020CC007B68012283F846207B68012283F83E203E
:1020DC007B68012283F83F207B68012283F8402033
:1020EC007B68012283F841207B68012283F842201F
:1020FC007B68012283F843207B68012283F844200B
:10210C007B68012283F845207B68012283F83D20FF
:10211C00002318460837BD4680BD80B483B000AF9D
:10212C00786000BF0C37BD4680BC704780B582B06C
:10213C0000AF78607B681B681B6903F00203022BFD
:10214C0022D17B681B68DB6803F00203022B1BD1D6
:10215C007B681B686FF002021A617B6801221A7798
:10216C007B681B689B6903F00303002B03D0786822
:10217C0000F076FA05E0786800F069FA786800F00B
:10218C0078FA7B6800221A777B681B681B6903F05E
:10219C000403042B22D17B681B68DB6803F0040367
:1021AC00042B1BD17B681B686FF004021A617B68DF
:1021BC0002221A777B681B689B6903F44073002B1F
:1021CC0003D0786800F04CFA05E0786800F03FFA2C
:1021DC00786800F04EFA7B6800221A777B681B68DF
:1021EC001B6903F00803082B22D17B681B68DB6892
:1021FC0003F00803082B1BD17B681B686FF00802E7
:10220C001A617B6804221A777B681B68DB6903F010
:10221C000303002B03D0786800F022FA05E07868FD
:10222C0000F015FA786800F024FA7B6800221A771F
:10223C007B681B681B6903F01003102B22D17B6891
:10224C001B68DB6803F01003102B1BD17B681B6829
:10225C006FF010021A617B6808221A777B681B6882
:10226C00DB6903F44073002B03D0786800F0F8F9B5
:10227C0005E0786800F0EBF9786800F0FAF97B6813
:10228C0000221A777B681B681B6903F00103012B82
:10229C000ED17B681B68DB6803F00103012B07D1AF
:1022AC007B681B686FF001021A617868FEF7ACFD61
:1022BC007B681B681B6903F08003802B0ED17B6845
:1022CC001B68DB6803F08003802B07D17B681B68DD
:1022DC006FF080021A61786800F0C5FC7B681B689F
:1022EC001B6903F04003402B0ED17B681B68DB6835
:1022FC0003F04003402B07D17B681B686FF0400252
:10230C001A61786800F0BEF97B681B681B6903F0E2
:10231C002003202B0ED17B681B68DB6803F02003A5
:10232C00202B07D17B681B686FF020021A6178683C
:10233C0000F090FC00BF0837BD4680BD80B586B06C
:10234C0000AFF860B9607A600023FB75FB6893F806
:10235C003C30012B01D10223AEE0FB68012283F853
:10236C003C207B680C2B00F29F8001A252F823F0DA
:10237C00B1230008B5240008B5240008B5240008D2
:10238C00F1230008B5240008B5240008B524000882
:10239C0033240008B5240008B5240008B52400082F
:1023AC0073240008FB681B68B968184600F0D6F95E
:1023BC00FB681B689A69FB681B6842F008029A610B
:1023CC00FB681B689A69FB681B6822F004029A611F
:1023DC00FB681B689969BB681A69FB681B680A4330
:1023EC009A6164E0FB681B68B968184600F01CFA37
:1023FC00FB681B689A69FB681B6842F400629A616F
:10240C00FB681B689A69FB681B6822F480629A61FE
:10241C00FB681B689969BB681B691A02FB681B681F
:10242C000A439A6143E0FB681B68B968184600F0E0
:10243C0065FAFB681B68DA69FB681B6842F00802E6
:10244C00DA61FB681B68DA69FB681B6822F004021E
:10245C00DA61FB681B68D969BB681A69FB681B6881
:10246C000A43DA6123E0FB681B68B968184600F080
:10247C00AFFAFB681B68DA69FB681B6842F4006200
:10248C00DA61FB681B68DA69FB681B6822F48062FE
:10249C00DA61FB681B68D969BB681B691A02FB68A7
:1024AC001B680A43DA6102E00123FB7500BFFB687D
:1024BC00002283F83C20FB7D18461837BD4680BDB2
:1024CC0080B584B000AF786039600023FB737B6803
:1024DC0093F83C30012B01D10223B4E07B6801223C
:1024EC0083F83C207B68022283F83D207B681B68C4
:1024FC009B68BB60BB6823F07703BB60BB6823F4AD
:10250C007F43BB607B681B68BA689A603B681B683A
:10251C00B3F5005F3ED0B3F5005F00F28780B3F5F2
:10252C00805F00F08680B3F5805F7FD8702B1AD067
:10253C00702B7BD8602B50D0602B77D8502B3CD095
:10254C00502B73D8402B58D0402B6FD8302B64D0E5
:10255C00302B6BD8202B60D0202B67D8002B5CD075
:10256C00102B5AD062E07B6818683B6899683B680E
:10257C005A683B68DB6800F0F0FA7B681B689B6864
:10258C00BB60BB6843F07703BB607B681B68BA68B1
:10259C009A604FE07B6818683B6899683B685A689A
:1025AC003B68DB6800F0D9FA7B681B689A687B682B
:1025BC001B6842F480429A603CE07B6818683B6878
:1025CC0059683B68DB681A4600F050FA7B681B6858
:1025DC005021184600F0A7FA2CE07B6818683B687D
:1025EC0059683B68DB681A4600F06EFA7B681B681A
:1025FC006021184600F097FA1CE07B6818683B686D
:10260C0059683B68DB681A4600F030FA7B681B6837
:10261C004021184600F087FA0CE07B681A683B688A
:10262C001B681946104600F07EFA03E00123FB7389
:10263C0000E000BF7B68012283F83D207B6800220C
:10264C0083F83C20FB7B18461037BD4680BD80B418
:10265C0083B000AF786000BF0C37BD4680BC7047BC
:10266C0080B483B000AF786000BF0C37BD4680BC2F
:10267C00704780B483B000AF786000BF0C37BD46A4
:10268C0080BC704780B483B000AF786000BF0C375B
:10269C00BD4680BC7047000080B485B000AF786048
:1026AC0039607B681B68FB607B68294A93420BD0BE
:1026BC007B68B3F1804F07D07B68264A934203D0E6
:1026CC007B68254A934208D1FB6823F07003FB60BA
:1026DC003B685B68FA681343FB607B681C4A934257
:1026EC000BD07B68B3F1804F07D07B68194A9342BB
:1026FC0003D07B68184A934208D1FB6823F44073DB
:10270C00FB603B68DB68FA681343FB60FB6823F0F3
:10271C0080023B685B691343FB607B68FA681A6054
:10272C003B689A687B68DA623B681A687B689A62D5
:10273C007B68074A934203D13B681A697B681A632A
:10274C007B6801225A6100BF1437BD4680BC7047BC
:10275C00002C0140000400400008004080B487B009
:10276C0000AF786039607B681B6A7B617B681B6A91
:10277C0023F001027B681A627B685B683B617B68B3
:10278C009B69FB60FB6823F07003FB60FB6823F024
:10279C000303FB603B681B68FA681343FB607B69AF
:1027AC0023F002037B613B689B687A6913437B616E
:1027BC007B681C4A93420CD17B6923F008037B6134
:1027CC003B68DB687A6913437B617B6923F0040304
:1027DC007B617B68134A934211D13B6923F480736C
:1027EC003B613B6923F400733B613B685B693A696D
:1027FC0013433B613B689B693A6913433B617B68BC
:10280C003A695A607B68FA689A613B685A687B68D7
:10281C005A637B687A691A6200BF1C37BD4680BC5C
:10282C00704700BF002C014080B487B000AF7860C7
:10283C0039607B681B6A7B617B681B6A23F0100222
:10284C007B681A627B685B683B617B689B69FB6099
:10285C00FB6823F4E043FB60FB6823F44073FB60EC
:10286C003B681B681B02FA681343FB607B6923F00F
:10287C0020037B613B689B681B017A6913437B6176
:10288C007B681D4A93420DD17B6923F080037B61E9
:10289C003B68DB681B017A6913437B617B6923F01E
:1028AC0040037B617B68144A934213D13B6923F448
:1028BC0080633B613B6923F400633B613B685B696C
:1028CC009B003A6913433B613B689B699B003A69E7
:1028DC0013433B617B683A695A607B68FA689A617A
:1028EC003B685A687B689A637B687A691A6200BF96
:1028FC001C37BD4680BC7047002C014080B487B0AB
:10290C0000AF786039607B681B6A7B617B681B6AEF
:10291C0023F480727B681A627B685B683B617B681E
:10292C00DB69FB60FB6823F07003FB60FB6823F042
:10293C000303FB603B681B68FA681343FB607B690D
:10294C0023F400737B613B689B681B027A69134319
:10295C007B617B681D4A93420DD17B6923F4006334
:10296C007B613B68DB681B027A6913437B617B6983
:10297C0023F480637B617B68144A934213D13B69D7
:10298C0023F480533B613B6923F400533B613B6868
:10299C005B691B013A6913433B613B689B691B01F3
:1029AC003A6913433B617B683A695A607B68FA6801
:1029BC00DA613B685A687B68DA637B687A691A6209
:1029CC0000BF1C37BD4680BC704700BF002C0140C7
:1029DC0080B487B000AF786039607B681B6A3B615C
:1029EC007B681B6A23F480527B681A627B685B6885
:1029FC007B617B68DB69FB60FB6823F4E043FB6075
:102A0C00FB6823F44073FB603B681B681B02FA688D
:102A1C001343FB603B6923F400533B613B689B68A9
:102A2C001B033A6913433B617B680F4A934209D1FC
:102A3C007B6923F480437B613B685B699B017A690A
:102A4C0013437B617B687A695A607B68FA68DA6148
:102A5C003B685A687B681A647B683A691A6200BFE3
:102A6C001C37BD4680BC7047002C014080B487B039
:102A7C0000AFF860B9607A60FB681B6A7B61FB6829
:102A8C001B6A23F00102FB681A62FB689B693B61BD
:102A9C003B6923F0F0033B617B681B013A691343EC
:102AAC003B617B6923F00A037B617A69BB68134342
:102ABC007B61FB683A699A61FB687A691A6200BFAC
:102ACC001C37BD4680BC704780B487B000AFF8603F
:102ADC00B9607A60FB681B6A7B61FB681B6A23F038
:102AEC001002FB681A62FB689B693B613B6923F42B
:102AFC0070433B617B681B033A6913433B617B6901
:102B0C0023F0A0037B61BB681B017A6913437B61D3
:102B1C00FB683A699A61FB687A691A6200BF1C37D4
:102B2C00BD4680BC704780B485B000AF786039601A
:102B3C007B689B68FB60FB6823F07003FB603A6862
:102B4C00FB68134343F00703FB607B68FA689A60E9
:102B5C0000BF1437BD4680BC704780B487B000AF4F
:102B6C00F860B9607A603B60FB689B687B617B694D
:102B7C0023F47F437B613B681A027B681A43BB6872
:102B8C0013437A6913437B61FB687A699A6000BFCF
:102B9C001C37BD4680BC704780B485B000AF7860F0
:102BAC0039607B6893F83C30012B01D1022346E05D
:102BBC007B68012283F83C207B68022283F83D204D
:102BCC007B681B685B68FB607B681B689B68BB60F1
:102BDC00FB6823F07003FB603B681B68FA681343C7
:102BEC00FB607B681B68FA685A607B681B68164A36
:102BFC0093420ED07B681B68B3F1804F09D07B6881
:102C0C001B68124A934204D07B681B68104A93429B
:102C1C000CD1BB6823F08003BB603B685B68BA686F
:102C2C001343BB607B681B68BA689A607B6801229F
:102C3C0083F83D207B68002283F83C200023184653
:102C4C001437BD4680BC7047002C01400004004086
:102C5C000008004080B483B000AF786000BF0C3730
:102C6C00BD4680BC704780B483B000AF786000BFB5
:102C7C000C37BD4680BC704770B500260C4D0D4C12
:102C8C00641BA410A64209D100F022F800260A4DBC
:102C9C000A4C641BA410A64205D170BD55F8043B28
:102CAC0098470136EEE755F8043B98470136F2E7B2
:102CBC00182D0008182D0008182D00081C2D0008D0
:102CCC0003460244934200D1704703F8011BF9E715
:102CDC00F8B500BFF8BC08BC9E467047F8B500BFFD
:082CEC00F8BC08BC9E467047CD
:102CF40000000000000000000102030406070809A8
:102D040002030405060708090A0B0C0D0E0F101028
:042D140001020000B8
:042D1800310100087D
:042D1C000D0100089D
:102D2000010000000100000001000000010000009F
:102D3000010000000100000001000000010000008F
:102D4000010000000100000001000000010000007F
:102D5000010000000100000001000000010000006F
:0C2D60000024F40010000000010000003E
:04000005080010F9E6
:00000001FF
